:100000000C94DF020C9407030C9407030C94070371
:100010000C9407030C9407030C9407030C94070338
:100020000C9407030C9407030C9407030C94070328
:100030000C9407030C9407030C9407030C94070318
:100040000C9418140C9407030C9407030C940703E6
:100050000C9407030C9407030C9407030C940703F8
:100060000C9452170C94070300000000003E5B4FF5
:100070005B3E3E6B4F6B3E1C3E7C3E1C183C7E3C08
:10008000181C577D571C1C5E7F5E1C00183C180016
:10009000FFE7C3E7FF0018241800FFE7DBE7FF30A6
:1000A000483A060E2629792926407F050507407F14
:1000B00005253F5A3CE73C5A7F3E1C1C08081C1C87
:1000C0003E7F14227F22145F5F005F5F06097F017D
:1000D0007F006689956A606060606094A2FFA29468
:1000E00008047E040810207E201008082A1C080836
:1000F0001C2A08081E101010100C1E0C1E0C303884
:100100003E3830060E3E0E06000000000000005F84
:1001100000000007000700147F147F14242A7F2AA0
:100120001223130864623649562050000807030062
:10013000001C2241000041221C002A1C7F1C2A08AE
:10014000083E080800807030000808080808000011
:1001500060600020100804023E5149453E00427F85
:10016000400072494949462141494D331814127FD4
:100170001027454545393C4A494931412111090774
:100180003649494936464949291E000014000000F5
:1001900040340000000814224114141414140041C7
:1001A00022140802015909063E415D594E7C121184
:1001B000127C7F494949363E414141227F414141BC
:1001C0003E7F494949417F090909013E4141517337
:1001D0007F0808087F00417F41002040413F017FA8
:1001E000081422417F404040407F021C027F7F0470
:1001F00008107F3E4141413E7F090909063E4151B9
:10020000215E7F09192946264949493203017F01A8
:10021000033F4040403F1F2040201F3F4038403FA9
:10022000631408146303047804036159494D4300BF
:100230007F4141410204081020004141417F0402F6
:10024000010204404040404000030708002054548D
:1002500078407F284444383844444428384444286B
:100260007F385454541800087E090218A4A49C78BE
:100270007F0804047800447D40002040403D007F1A
:100280001028440000417F40007C047804787C08FA
:100290000404783844444438FC18242418182424CE
:1002A00018FC7C08040408485454542404043F44B3
:1002B000243C4040207C1C2040201C3C4030403CE2
:1002C00044281028444C9090907C4464544C440042
:1002D00008364100000077000000413608000201A6
:1002E0000204023C2623263C1EA1A161123A404092
:1002F000207A38545455592155557941225454780F
:1003000042215554784020545579400C1E527212A7
:100310003955555559395454545939555454580030
:1003200000457C410002457D420001457C407D1234
:1003300011127DF0282528F07C5455450020545496
:100340007C547C0A097F4932494949323A44444441
:100350003A324A4848303A4141217A3A424020787C
:10036000009DA0A07D3D4242423D3D4040403D3C7D
:1003700024FF2424487E4943662B2FFC2F2BFF09A2
:1003800029F620C0887E0903205454794100004496
:100390007D413048484A32384040227A007A0A0A81
:1003A000727D0D19317D2629292F282629292926F4
:1003B00030484D4020380808080808080808382F39
:1003C00010C8ACBA2F102834FA00007B00000814C3
:1003D0002A142222142A14085500550055AA55AA99
:1003E00055AAFF55FF55FF000000FF00101010FF39
:1003F00000141414FF001010FF00FF1010F010F094
:10040000141414FC001414F700FF0000FF00FF1484
:1004100014F404FC141417101F10101F101F1414D0
:10042000141F00101010F0000000001F101010101A
:100430001F10101010F010000000FF10101010100E
:1004400010101010FF10000000FF140000FF00FF4C
:1004500000001F10170000FC04F4141417101714E8
:1004600014F404F40000FF00F7141414141414140A
:10047000F700F7141414171410101F101F1414147D
:10048000F4141010F010F000001F101F0000001FE7
:1004900014000000FC140000F010F01010FF10FF1A
:1004A000141414FF141010101F00000000F010FFAF
:1004B000FFFFFFFFF0F0F0F0F0FFFFFF0000000093
:1004C00000FFFF0F0F0F0F0F3844443844FC4A4A17
:1004D0004A347E02020606027E027E0263554941CC
:1004E000633844443C04407E201E2006027E020203
:1004F00099A5E7A5991C2A492A1C4C7201724C3017
:100500004A4D4D303048784830BC625A463D3E49ED
:100510004949007E0101017E2A2A2A2A2A44445F91
:10052000444440514A444040444A51400000FF0185
:1005300003E080FF000008086B6B08361236243693
:10054000060F090F060000181800000010100030F8
:1005500040FF0101001F01011E00191D1712003C80
:100560003C3C3C00000000000000000800020100CC
:10057000000304070000000000000000010204085E
:1005800010204080010204081020010204081020FD
:100590000404040404040404020202020202030329
:1005A0000303030300000000250028002B000000C7
:1005B0000000240027002A00170570165D0511248D
:1005C0001FBECFEFD8E0DEBFCDBF14E0A0E0B1E0AA
:1005D000E6ECFAE302C005900D92AC34B107D9F70E
:1005E00025E0ACE4B4E001C01D92A838B207E1F701
:1005F00015E0CCEBD5E004C02297FE010E94061B5B
:10060000C83BD107C9F70E9436120C94561D0C94B2
:10061000000088E894E00E94140640E050E068EC96
:1006200074E488E894E00E944106E8EBF0E0808101
:100630008CE080830895AF92BF92CF92DF92EF92C9
:10064000FF920F931F93CF93DF93F82E0AE010E0F1
:10065000C0E0D0E08F2D0E94E814C80FD91F0150D0
:100660001109C1F7CE016AE070E00E94901A882754
:1006700077FD8095982F1F921F922FE02F932FEFD9
:100680002F93A12CB12C650118E9E12E13E0F12E76
:1006900000E010E02AE030E040E050E00E944D131E
:1006A0000F900F900F900F90CB01DF91CF911F9182
:1006B0000F91FF90EF90DF90CF90BF90AF90089593
:1006C000AF92BF92CF92DF92EF92FF920F931F9360
:1006D000BC01882777FD8095982F1F921F921F924B
:1006E00024E62F93A12CB12C6501EE24EA941FE09F
:1006F000F12E00E010E020E030E0A9010E944D134F
:100700000F900F900F900F90CB011F910F91FF90C2
:10071000EF90DF90CF90BF90AF90089589E894E07C
:100720000E94CA0F61E089E894E00E94700C40E0EA
:1007300050E061E070E089E894E00E94760C40E0CF
:1007400050E060E070E089E894E00E946A0C63E2A7
:1007500073E089E894E00E94901249E050E060E084
:1007600070E089E894E00E946A0C66E373E089E82F
:1007700094E00E948312809110010E94E8144AE0E4
:1007800050E0BC0189E894E00E94451364E473E002
:1007900089E894E00E94901266E473E089E894E0AE
:1007A0000E94831280910E010E94E8144AE050E0FA
:1007B000BC0189E894E00E94451364E473E089E891
:1007C00094E00E94901264E573E089E894E00E944E
:1007D000831280910C010E94E8144AE050E0BC01B1
:1007E00089E894E00E94451364E473E089E894E0AA
:1007F0000E94901262E673E089E894E00E948312FE
:1008000080910A010E94E8140E9460034AE050E0CF
:10081000BC0189E894E00E94451364E473E089E830
:1008200094E00E94901289E894E00C9476110E9462
:100830001B030C946003AF92BF92CF92DF92EF92B2
:10084000FF920F931F930E941B03BC01882777FD23
:100850008095982F1F921F921F9229E02F93A12C11
:10086000B12C6501EE24EA941FE0F12E00E010E0C7
:1008700020E030E0A9010E944D130F900F900F90DF
:100880000F90CB011F910F91FF90EF90DF90CF90D1
:10089000BF90AF900895CF93DF9300D000D000D0E9
:1008A000CDB7DEB70E941B0426E0289FF001299FE8
:1008B000F00D1124E156FC4F86E0DE011196019007
:1008C0000D928A95E1F729813A814B815C816D8196
:1008D0007E8180E090E026960FB6F894DEBF0FBED2
:1008E000CDBFDF91CF9108959B0140E050E0682F8C
:1008F00088E894E00C94A705BF92CF92DF92EF9224
:10090000FF920F931F93CF93DF9300D000D000D0BE
:10091000CDB7DEB77C016B01CA010E9417048C01C0
:10092000C6010E944B043A834B835C836D837E83B4
:1009300086E08E9DF0018F9DF00D1124ED56FC4F49
:10094000B180C280D380E480F580C80164E670E0A5
:100950000E94901A8B01209FB001219F700D1124DD
:10096000808190E00E9474048A81809FB001819F01
:10097000700D11248B2D90E00E9474048B81809F58
:10098000B001819F700D11248C2D90E00E947404A1
:100990008C81809FB001819F700D11248D2D90E07E
:1009A0000E9474048D81809FB001819F700D11247D
:1009B0008E2D90E00E9474048E81809FB001819FF3
:1009C000700D11248F2D90E026960FB6F894DEBF9F
:1009D0000FBECDBFDF91CF911F910F91FF90EF9090
:1009E000DF90CF90BF900C94740440910E01509111
:1009F0000F01609110017091110180E090E00E9460
:100A00007C0440910A0150910B0160910C0170919E
:100A10000D0181E090E00C947C0461E070E080E0E6
:100A200090E00E9485140E948E030C94F50464E00B
:100A300089E894E00E94B10F60E488E894E00E94A5
:100A4000A40560E773E08CE494E00E94021463E77D
:100A500073E082E594E00E94021466E773E088E5A3
:100A600094E00E9402146AE773E08EE594E00E942D
:100A700002146EE773E084E694E00E94021462E8D8
:100A800073E08AE694E00E94021466E873E080E76F
:100A900094E00E9402146AE873E086E794E00E9402
:100AA00002146DE873E08CE794E00E94021460E9A0
:100AB00073E082E894E00C940214CF93DF93C8E8CB
:100AC000D4E02697CE010E94941384E0CC34D8075A
:100AD000C1F7DF91CF91089521E04CE362E089E80E
:100AE00094E00E94451089E894E00E94761160ED40
:100AF00077E080E090E00E94851489E894E00E940D
:100B0000CA0F21E030E04AE050E06AE070E089E896
:100B100094E00E94FA0E89E894E00E94761160ED5C
:100B200077E080E090E00E94851489E894E00C94DE
:100B3000CA0F0E9409030C946C05DC01ED91FC9135
:100B40000190F081E02D0994FC0160830895FF92EB
:100B50000F931F93CF93DF9300D0CDB7DEB7162F3F
:100B6000F52E032FFC01608184EC94E02A834983F5
:100B70000E944E16E091C404F091C50484E0189FD1
:100B8000B00111246A5F7F4F0190F081E02D84EC69
:100B900094E009954981642F7F2D84EC94E00E94B4
:100BA0009D056F2D70E084EC94E00E949D052A81E4
:100BB000622F702F84EC94E00E949D05602F70E0FE
:100BC00084EC94E00E949D0584EC94E00F900F90DB
:100BD000DF91CF911F910F91FF900C946D161F9391
:100BE000CF93DF931F92CDB7DEB7162FFC01608144
:100BF00084EC94E049830E944E16612F84EC94E0CB
:100C00000E94F5154981642F84EC94E00E94F5154B
:100C100084EC94E00F90DF91CF911F910C946D16AE
:100C200040E060E00C94EF05CF93DF93EC0184EC9F
:100C300094E00E943416CE01DF91CF910C941006FF
:100C40001F93CF93DF93EC01162F688184EC94E01F
:100C50000E944E16612F84EC94E00E94F51584ECFE
:100C600094E00E946D1641E0688184EC94E00E945B
:100C70004B1684EC94E00E94A515DF91CF911F9153
:100C80000895CF92DF92EF92FF921F93CF93DF935D
:100C9000EC01CB01BA0126E636E646E65FE30E94A8
:100CA0001D1A9B01AC0160E27CEB8EEB95E40E9487
:100CB000E51820E030E040E85FE30E94801820E083
:100CC00030E040E05FE30E9481180E9479196B01D7
:100CD0007C0160E0CE010E942006182F482F4F763D
:100CE000406160E0CE010E94EF05C701B6010E949D
:100CF0004D19462F6EEFCE010E94EF05412F60E0A7
:100D0000CE010E94EF0565E070E080E090E00E9477
:100D10008514412F416A60E0CE01DF91CF911F9190
:100D2000FF90EF90DF90CF900C94EF052F923F92C1
:100D30004F925F926F927F928F929F92AF92BF92EB
:100D4000CF92DF92EF92FF920F931F93CF93DF9397
:100D500000D000D0CDB7DEB74C017C836B836A0135
:100D60005901C8018701AC014C195D0957FF03C047
:100D700051954195510995016B817C81261B370B5B
:100D800037FF03C031952195310922242394312C5A
:100D90002417350714F0212C312C2114310459F07B
:100DA0003A2D2B2D5C01832F922F3B812C81DC82ED
:100DB000CB82C32ED22EAB81BC81AA16BB065CF4BB
:100DC0003C2D2D2D6C01832F922F3B812C81BC82D9
:100DD000AB82A32EB22E2501EB81FC814E1A5F0A55
:100DE0003C016C187D0877FE03C071946194710812
:100DF000720157FE03C0FFEFEF1AFF0AF594E79464
:100E0000C816D9062CF421E030E03A83298324C0A7
:100E10006FEF7FEF7A8369831FC0D401ED91FC915E
:100E20000084F185E02D980121143104D9F04B8123
:100E30005C81B601C4010995E618F708F7FE06C003
:100E4000E981FA81CE0EDF1EE40CF51C2B813C817A
:100E50002F5F3F4F3C832B836B817C81A616B706A7
:100E6000E4F604C0A6016B817C81E4CF0F900F9063
:100E70000F900F90DF91CF911F910F91FF90EF9006
:100E8000DF90CF90BF90AF909F908F907F906F90AA
:100E90005F904F903F902F9008950895DC01ED9161
:100EA000FC910480F581E02D09940F931F93DC01E0
:100EB000ED91FC91008CF18DE02D09951F910F9122
:100EC00008950F931F93DC01ED91FC91028CF38D3B
:100ED000E02D09951F910F910895EF92FF920F93C6
:100EE0001F93DC01ED91FC91048CF58DE02D0995AB
:100EF0001F910F91FF90EF9008950895AF92BF92C8
:100F0000CF92DF92EF92FF920F931F93CF93DF93D5
:100F100000D000D0CDB7DEB75C0169017801DC01FB
:100F2000ED91FC910680F781E02D4B835C83698312
:100F30007A830995D501ED91FC914B815C818A0101
:100F40000C0D1D1D015011090088F189E02D6981EA
:100F50007A819B01C5010995D501ED91FC9102882B
:100F6000F389E02DC5010F900F900F900F90DF9146
:100F7000CF911F910F91FF90EF90DF90CF90BF9096
:100F8000AF900994AF92BF92CF92DF92EF92FF920F
:100F90000F931F93CF93DF9300D000D0CDB7DEB770
:100FA0005C016901DC01ED91FC910680F781E02D87
:100FB0004B835C8369837A830995D501ED91FC911C
:100FC00069817A819B012C0D3D1D215031090088DA
:100FD000F189E02D78014B815C818A01C501099579
:100FE000D501ED91FC910288F389E02DC5010F90A8
:100FF0000F900F900F90DF91CF911F910F91FF9065
:10100000EF90DF90CF90BF90AF9009944F925F9296
:101010006F927F928F929F92AF92BF92CF92DF9208
:10102000EF92FF920F931F93CF93DF9300D0CDB732
:10103000DEB76C014A0159013801DC01ED91FC91E8
:101040000680F781E02D69837A8309956981462EB0
:101050007A81572EA40CB51CD601ED91FC914A144F
:101060005B046CF40484F585E02D87019301A401F1
:10107000B201C6010995BFEF4B1A5B0AEDCF02889A
:10108000F389E02DC6010F900F90DF91CF911F9152
:101090000F91FF90EF90DF90CF90BF90AF909F9017
:1010A0008F907F906F905F904F900994EF92FF9296
:1010B0000F931F93DC01ED91FC9111971A960D91FE
:1010C0001C911B9718962D913C911997048CF58DC6
:1010D000E02D7B0140E050E060E070E009951F9159
:1010E0000F91FF90EF900895CF92DF92EF92FF92D1
:1010F0000F931F93CF93DF9300D000D000D0CDB7D4
:10110000DEB76C01DC01ED91FC916217730789F485
:10111000041715072CF4942F852FA801092F182FD9
:101120009801241B350B2F5F3F4F008CF18DE02D74
:1011300012C04017510709F5261737072CF4962FD0
:10114000872FB901292F382F261B370B2F5F3F4FD1
:10115000028CF38DE02D8701C601099526960FB606
:10116000F894DEBF0FBECDBFDF91CF911F910F91DD
:10117000FF90EF90DF90CF9008950680F781E02DEB
:101180002D833E834B835C8369837A830995D601E3
:10119000ED91FC910088F189E02D2D813E814B81FC
:1011A0005C8169817A81C6010995D601ED91FC9136
:1011B0000288F389E02DC60126960FB6F894DEBFAB
:1011C0000FBECDBFDF91CF911F910F91FF90EF9098
:1011D000DF90CF9009946F927F928F929F92AF92FF
:1011E000BF92CF92DF92EF92FF920F931F93CF9314
:1011F000DF93EC015B016A0139014801E881F98163
:101200000680F781E02D0995E881F9810684F7854C
:10121000E02D87019301A601B501CE010995E88172
:10122000F981A601480D591D415051090684F785E1
:10123000E02D9301B501CE010995E881F98104847F
:10124000F585E02D9401A601B501CE010995E8814F
:10125000F981B501660D771D615071090484F5852A
:10126000E02D9401A601CE010995E881F98102885B
:10127000F389E02DCE01DF91CF911F910F91FF9067
:10128000EF90DF90CF90BF90AF909F908F907F9026
:101290006F9009940895FC016370658B848195813A
:1012A00026813781613039F0633029F0918780875A
:1012B000338722870895318720879387828708950F
:1012C000FC01138212828FED93E0918380837583FA
:1012D0006483578346837187608753874287158A63
:1012E000158614861786168621E0248B8FEF9FEFD4
:1012F000938B828B918B808B268B178A118E108E0D
:1013000008952F923F924F925F926F927F928F92A9
:101310009F92AF92BF92CF92DF92EF92FF920F9384
:101320001F93CF93DF93CDB7DEB76B970FB6F894CB
:10133000DEBF0FBECDBF9B8F8A8F4B015A011B872B
:101340000A873701C982DC0158964D915C91599703
:101350004115510509F0E7C018968D919C91199798
:10136000681779070CF0C6C11A968D919C911B974E
:10137000A816B9060CF0BEC14C2C512CFB0136E06E
:10138000C39EE00DF11D1124F88BEF871E161F067A
:101390000CF0B0C1C20133E0880F991F3A95E1F714
:1013A0009A8B898B8A0D9B1D181619060CF0A2C109
:1013B00057968C91811103C0203B08F02F5FAA8DB6
:1013C000BB8DED91FC9111970680F781E02DCD0149
:1013D000298F0995F981EF2FF0E0FC8BEB8B14013D
:1013E0009F828E82188608E6C02E00E0D02EC81894
:1013F000D908298D35E0239FC00CD11C1124F6019A
:10140000E20DF31D44914E87BD82AC82BB82AA825D
:1014100058E05C878E8580FF13C0AA8DBB8DED914F
:10142000FC91B981B13031F40084F185E02D2A8539
:101430003B8516C00284F385E02DEA84FB841BC043
:10144000EA85FB856E167F06F9F0AA8DBB8DED91BE
:10145000FC91B981B13059F40084F185E02D9301FC
:101460004A815B81B1018A8D9B8D09950DC00284F3
:10147000F385E02D7301820192014C815D816E81C3
:101480007F818A8D9B8D0995EE85E695EE87FC859B
:10149000F150FC872C813D814B895C89240F351FDD
:1014A0003D832C838A819B8101969B838A83F111E2
:1014B000B1CF98859F5F9887AE81BF81A40FB51F7C
:1014C000BF83AE83BFEF2B1A3B0A953009F097CF4D
:1014D000EA85FB856E167F0609F4EAC0AA8DBB8DEE
:1014E000ED91FC91B981B13071F4B4016B5F7F4F24
:1014F0000484F585E02D830128E030E0A5018A8D84
:101500009B8D0995D5C06F8578896419750902840A
:10151000F385E02D730109891A899201A5018A8D4D
:101520009B8D0995C5C0FA01349634913297859107
:101530009491231BB7E02B9F800D911D1124FA017C
:10154000259134913A8B298BFC01459154915B8311
:101550004A83FC01329654915E873196A491AF87FD
:101560003296249031961491B981B23058F0422CC1
:10157000552447FC5094E12FFF27E7FDF095FD87A8
:10158000EC8704C01D861C86412C512CEA8DFB8DF6
:10159000A081B1811696ED91FC9117978A8D9B8D54
:1015A0000995F9816F2E712C469C9001479C300D56
:1015B000569C300D1124280D391D3F832E83412C5C
:1015C000512CD12C7E8A6D8AA401420D511D27FC1D
:1015D0005A9559874887C501810F911D17FD9A9526
:1015E000988F8F8B4F85D41608F062C08D2D90E0B8
:1015F0002C853D85280F391F269DD001279DB00DD4
:10160000369DB00D1124AA0DBB1DBD83AC8388840B
:1016100099842E803F80C42CB885CB1AEF89F88D31
:10162000E80FF91FFC8BEB8B9C2D980D882D2885DE
:10163000821B3E858317C8F5977061F48A819B8170
:101640000196E989FA89AA81BB81EA0FFB1F5490B0
:101650009B838A8357FE20C0AA8DBB8DED91FC91A0
:10166000B981B13061F40084F185E02D2A853B8594
:101670004B895C89B4018A8D9B8D09950DC00284CC
:10168000F385E02DEA84FB84830193014C815D8125
:10169000B1018A8D9B8D0995550CED89FE892E0E21
:1016A0003F1EFFEF8F1A9F0ABFCF430ED3949ACFEE
:1016B000AA8DBB8DED91FC9111970288F389E02DE5
:1016C000CD016B960FB6F894DEBF0FBECDBFDF9194
:1016D000CF911F910F91FF90EF90DF90CF90BF902F
:1016E000AF909F908F907F906F905F904F903F90C2
:1016F0002F9009946B960FB6F894DEBF0FBECDBF46
:10170000DF91CF911F910F91FF90EF90DF90CF90DD
:10171000BF90AF909F908F907F906F905F904F9011
:101720003F902F900895AF92BF92CF92EF92FF9289
:101730000F931F93CF93DF93EC01262F888D998D04
:10174000009709F042C06A3069F41D861C862C8916
:101750008E859F8538E0239F800D911D11249F87E2
:101760008E87ACC06D3009F4A9C08E898823C1F082
:101770003C898C859D8546E0349F800D911D112408
:1017800048855985481759075CF41D861C868E8547
:101790009F8548E0349F800D911D11249F878E877F
:1017A000EA88FB88088919894E855F856C857D8567
:1017B000CC88CE010E9481092C898C859D8536E0DC
:1017C000239F800D911D112442C06A3079F41D863B
:1017D0001C864C89FC01369684912E853F85489F56
:1017E000200D311D11243F872E8768C06D3009F40C
:1017F00065C0FC0134963491631708F45FC03196DC
:10180000E491E61708F45AC0FC0132966591749190
:10181000422F50E0431B510937E0349F5001359F60
:10182000B00C1124A60EB71EF5013296A491319684
:10183000E491AA2311F0E1110DC0F5013496A490B2
:101840002C898C859D85A29E800D911D11249D87DC
:101850008C8734C0F5013596E4913E89332309F134
:101860003C89B0E0AE0FB11DE7FDBA953A9FA001EB
:101870003B9F500D11246C857D85460F571F688551
:101880007985641775076CF41D861C86FC013696F5
:1018900084914E855F85389F400D511D11245F87CF
:1018A0004E87EA88FB88088919894E855F856C8593
:1018B0007D85CC88CE010E948109BFCF81E090E078
:1018C000DF91CF911F910F91FF90EF90CF90BF903C
:1018D000AF900895FC017587648757874687089500
:1018E000611101C061E0FC01648B0895FC01718B02
:1018F000608B538B428B0895FC0185890895FC0110
:10190000808591850895FC018285938508950F93C4
:101910001F93CF93DF93EC018D89823061F0833088
:10192000D9F0813009F0C8C0EC81FD81E41BF50BD2
:101930003197DB0118C08C819D81DC01A61BB70BA0
:10194000BD018E819F81FC01E41BF50BAF0141506D
:101950005109621B730BB0C0AE81BF81A61BB70BD0
:10196000A21BB30BFA01F7FD05C18C819D81E8171D
:10197000F9070CF0FFC0B7FF04C02A0F3B1FA0E01F
:10198000B0E08E819F81AD01420F531F84179507F0
:101990001CF49C012A1B3B0B121613060CF0EAC028
:1019A000422F8A2F86958695869590E8899FE00D2F
:1019B000F11D1124EE5DFE4FA77069F158E05A1B2E
:1019C000852F90E0EC01C65EDE4F6881251760F43C
:1019D000DC01A21BB1098FEF90E00A2E02C09595A1
:1019E00087950A94E2F768230130110539F048F031
:1019F0000230110551F48081862706C08081862B34
:101A000003C06095808186238083451708F4B2C0A7
:101A1000451BE058FF4F4830A0F102301105A9F4F2
:101A2000DF01842F9C9190959C93A058BF4F8850C4
:101A30008830C0F788EF840F869586958695B0E844
:101A40008B9FE00DF11D112419C081E001301105BB
:101A500009F080E0982F9195EF01842F9883C0586A
:101A6000DF4F88508830D0F788EF840F86958695B1
:101A7000869590E8899FE00DF11D1124E058FF4FF5
:101A80004770442309F476C0A42FB0E0AE5EBE4F89
:101A90009C910130110541F050F00230110509F020
:101AA00069C08081892706C08081892B03C09095F9
:101AB0008081892380835EC057FD5CC08E819F81B9
:101AC000481759070CF056C077FF04C0260F371F80
:101AD00060E070E08C819D81FB01E20FF31F8E17A7
:101AE0009F071CF49C01261B370B121613060CF0E3
:101AF00041C0CA0157FD0796E3E095958795EA95A1
:101B0000E1F79695982F8827979587958E5D9E4F3C
:101B1000860F971F4770552761E070E001C0660F80
:101B20004A95EAF7462F0130110541F088F002305E
:101B3000110501F5FC01280F391F15C0FC01280F04
:101B4000391FE217F307B1F08081842B8193F9CF1D
:101B50006095FC01280F391FE217F30759F08081C7
:101B600086238193F9CFE217F30721F08081842740
:101B70008193F9CFDF91CF911F910F9108950F932A
:101B80001F93CF93DF93FC018589823069F0833006
:101B9000E1F0813009F082C0C481D581C41BD50B2E
:101BA000C21BD30BDB0117C084819581DC01A61B0E
:101BB000B70BBD016150710986819781DC01A41BBF
:101BC000B50BAD01421B530B69C0A681B781A61BA3
:101BD000B70B1197EA01B7FD08C186819781A81755
:101BE000B9070CF002C1D7FF04C02C0F3D1FC0E0A5
:101BF000D0E084819581AE01420F531F8417950771
:101C00001CF49C012C1B3D0B121613060CF0EDC0AE
:101C1000CD01B7FD079643E0959587954A95E1F785
:101C20009695982F8827979587958E5D9E4F8C0F58
:101C30009D1FA770BB2741E050E00A2E01C0440F52
:101C40000A94EAF7642F0130110549F098F0023048
:101C5000110509F0CAC0FC01280F391F17C0FC018B
:101C6000280F391FE217F30709F4BFC08081862BC4
:101C70008193F8CF4095FC01280F391FE217F30735
:101C800009F4B3C0808184238193F8CFE217F3076E
:101C900009F4ABC0808186278193F8CF77FDA5C07A
:101CA00084819581681779070CF09FC057FF04C0A5
:101CB000240F351F40E050E086819781FA01E20F42
:101CC000F31F8E179F071CF49C01241B350B121663
:101CD00013060CF08AC0522F842F86958695869520
:101CE000FB01B0E88B9FE00DF11D1124EE5DFE4F6E
:101CF000477069F168E0641B862F90E0EC01C65ED6
:101D0000DE4F4881261760F4DC01A21BB1098FEF7A
:101D100090E00A2E02C0959587950A94E2F7482331
:101D20000130110539F048F00230110551F480817D
:101D3000842706C08081842B03C040958081842342
:101D40008083561708F451C0561BE058FF4F583097
:101D5000A0F102301105A9F4DF01852F9C91909527
:101D60009C93A058BF4F88508830C0F788EF850FEC
:101D7000869586958695B0E88B9FE00DF11D112420
:101D800019C081E00130110509F080E0982F91958C
:101D9000EF01852F9883C058DF4F88508830D0F7E7
:101DA00088EF850F86958695869590E8899FE00D4A
:101DB000F11D1124E058FF4F57705523B1F0A52FA6
:101DC000B0E0AE5EBE4F9C910130110539F048F095
:101DD0000230110551F48081892706C08081892B4A
:101DE00003C09095808189238083DF91CF911F91DB
:101DF0000F910895CF92DF92EF92FF920F931F936E
:101E0000CF93DF937C018B01EA01690177FDA0C0CC
:101E10000E947F0C081719070CF09AC0D7FD98C0D4
:101E2000C7010E94830CC817D9070CF091C0C701E5
:101E30000E947C0C823009F07FC0F701848195817B
:101E40009C01201B310B890101501109868197816A
:101E5000FC01EC1BFD0BEF0121970BC0813049F415
:101E6000F701848195818C1B9D0BE8018C01015049
:101E70001109F1E0CF16D10431F010F132E0C316B0
:101E8000D104E1F165C0FE01D7FD379683E0F595F9
:101E9000E7958A95E1F7F695FE2FEE27F795E795FA
:101EA000E00FF11FEE5DFE4FC770DD2781E090E08F
:101EB0000C2E01C0880F0A94EAF79081982B3AC043
:101EC000FE01D7FD3796A3E0F595E795AA95E1F7D2
:101ED000F695FE2FEE27F795E795E00FF11FEE5DE3
:101EE000FE4FC770DD2781E090E00C2E01C0880F07
:101EF0000A94EAF78095908198231CC0FE01D7FDD3
:101F0000379663E0F595E7956A95E1F7F695FE2F2C
:101F1000EE27F795E795E00FF11FEE5DFE4FC770D6
:101F2000DD2781E090E00C2E01C0880F0A94EAF7CB
:101F30009081982790830CC0833009F08FCFF701F0
:101F400086819781801B910B8E01EC01219791CFA7
:101F5000DF91CF911F910F91FF90EF90DF90CF9085
:101F600008951F93CF93DF93EC01162F40E250E0CA
:101F700060E870E00E94600987E094E099838883BC
:101F80008FEF8C8F88A38E8F8D8F1F8FDF91CF91D6
:101F90001F91089580E092E0E2E2F1E0DF019C0110
:101FA0001D9221503040E1F70895FC0181A1882362
:101FB00039F06EBD00000DB407FEFDCF8EB508955B
:101FC00088E090E030E8A4A1B5A14C9123A520952C
:101FD00024232C93A2A1B3A122A5432F462321F0B1
:101FE0004C91422B4C9304C04C91209524232C936C
:101FF000A4A1B5A12C9143A5242B2C933695019730
:1020000011F708951F93CF93DF93EC01162F8C8D5A
:102010008F3F09F1EEA1FFA180819CA5892B8083D0
:10202000E8A5F9A590818DA5809589238083EEA1EF
:10203000FFA190818CA5809589238083CE010E9489
:10204000D50FEEA1FFA180819CA5892B8083DF9114
:10205000CF911F9108958A8D682F772767FD70951E
:1020600084EC94E00E94581660E084EC94E00E94B6
:10207000F515612F84EC94E00E94F51584EC94E052
:10208000DF91CF911F910C946D160F931F93CF93F7
:10209000DF93EC01162F022F6B8F4A8F8C8D8F3FB1
:1020A00009F48CC061E08E8D0E942E1561E088A13C
:1020B0000E942E1588A1992787FD9095FC01E05775
:1020C000FA4FE491F0E0EE0FFF1FEC55FA4F259127
:1020D00034913FA32EA3FC01E458FA4F84918CA7BE
:1020E0008E8D992787FD9095FC01E057FA4FE4917A
:1020F000F0E0EE0FFF1FEC55FA4F2591349139A710
:1021000028A7FC01E458FA4F84918DA789A1811179
:1021100034C061E08C8D0E942E1561E08D8D0E948F
:102120002E158D8D992787FD9095FC01E057FA4F6C
:10213000E491F0E0EE0FFF1FEC55FA4F259134913A
:102140003DA32CA3FC01E458FA4F84918BA78C8DFE
:10215000992787FD9095FC01E057FA4FE491F0E054
:10216000EE0FFF1FEC55FA4F259134913BA32AA3A4
:10217000FC01E458FA4F84918AA789A1882311F1C0
:102180000E94FD118091B904882399F09FB7F894BB
:102190008091B904813059F48DB38093B7042DB385
:1021A0008091B804809582238DBB9FBF02C090931D
:1021B000B70480E58CBD81E08DBD04C084EC94E063
:1021C0000E9434160023F1F08F8D87FD1BC061E063
:1021D0000E942E1561E08F8D0E94671561E070E00E
:1021E00080E090E00E94851460E08F8D0E9467156A
:1021F0006AE070E080E090E00E94851461E08F8DDD
:102200000E9467156EEACE010E94021065EDCE01B4
:102210000E94021060E8CE010E94021068EACE011E
:102220000E9402106FE1CE010E94021063EDCE0108
:102230000E94021060E0CE010E94021060E4CE0114
:102240000E9402106DE8CE010E940210113011F4BC
:1022500060E101C064E1CE010E94021060E2CE01A3
:102260000E94021060E0CE010E94021061EACE01DD
:102270000E94021068ECCE010E9402106AEDCE01AD
:102280000E94021062E0CE010E94021061E8CE01BD
:102290000E9402106FE8CE010E94021069EDCE018B
:1022A0000E940210113011F462E201C061EFCE0110
:1022B0000E9402106BEDCE010E94021060E4CE017C
:1022C0000E94021064EACE010E94021066EACE016A
:1022D0000E9402106EE2CE010E9402106FEACE014F
:1022E000DF91CF911F910F910C940210DF92EF922A
:1022F000FF920F931F93CF93DF93EC0161E20E9453
:10230000021060E0CE010E9402106FE7CE010E9431
:10231000021062E2CE010E94021060E0CE010E9433
:10232000021063E0CE010E9402108C8D8F3F31F1CC
:10233000EEA1FFA180819CA5892B8083E8A5F9A54A
:1023400080819DA5892B8083EEA1FFA190818CA522
:1023500080958923808302E211E0F80161918F0169
:10236000CE010E94D50FF3E002321F07B1F7EEA1B4
:10237000FFA180819CA5892B808337C0D090B800B5
:102380008CE08093B80002E211E06A8D772767FD48
:10239000709584EC94E00E945816E091C404F0918A
:1023A000C5040190F081E02D60E484EC94E009958F
:1023B000E12CF12CF801EE0DFF1D608184EC94E01E
:1023C0000E94F5158FEFE81AF80AE0E1EE16F10425
:1023D00089F784EC94E00E946D16005F1F4FF3E0D4
:1023E00002321F0791F6D092B800DF91CF911F9172
:1023F0000F91FF90EF90DF900895CF93CFB7F894AF
:102400008091BA04811127C0EAE9F5E08491E6E8F9
:10241000F5E09491E82FF0E0EE0FFF1FE255FA4F40
:10242000A591B4918C91892321F461E08AE00E9406
:10243000671561E08AE00E942E158CB580618CBD25
:102440008CB580648CBD61E08DE00E942E1561E04A
:102450008BE00E942E158091BA048F5F8093BA049E
:10246000CFBFCF9108950E940A1D08950E94AD1418
:102470000E9435120E949905C0E0D0E00E940D052F
:102480002097E1F30E940000F9CFCF92DF92EF9204
:10249000FF920F931F93CF93DF936C017A01EB01AF
:1024A000E60EF71E00E010E0CE15DF0561F0699141
:1024B000D601ED91FC910190F081E02DC6010995C6
:1024C000080F191FF1CFC801DF91CF911F910F9114
:1024D000FF90EF90DF90CF9008956115710581F026
:1024E000DB010D900020E9F7AD0141505109461B79
:1024F000570BDC01ED91FC910280F381E02D0994F2
:1025000080E090E008950C946D12DC01ED91FC9157
:102510000190F081E02D09946BE274E00C946D124F
:102520000F931F93CF93DF93EC010E946D128C01E8
:10253000CE010E948C12800F911FDF91CF911F91CD
:102540000F9108958F929F92AF92BF92CF92DF9298
:10255000EF92FF920F931F93CF93DF93CDB7DEB728
:10256000A1970FB6F894DEBF0FBECDBF7C01C42E7D
:10257000E52FCB01D22E19A221E02D1510F02AE073
:10258000D22E8E010F5D1F4F8D2C912CA12CB12CC2
:102590006C2D7E2FA50194010E94A41A8C2DD29E31
:1025A00080191124015011098A3014F4805D01C092
:1025B000895CF8018083211531054105510521F021
:1025C000C22EE32FCA01E4CFB801C7010E946D12E9
:1025D000A1960FB6F894DEBF0FBECDBFDF91CF91AD
:1025E0001F910F91FF90EF90DF90CF90BF90AF9031
:1025F0009F908F900895CF92DF92EF92FF920F936A
:102600001F93CF93DF93EC016A017B012115310504
:1026100079F4E881F9810190F081E02D642FDF9158
:10262000CF911F910F91FF90EF90DF90CF90099481
:102630002A303105E9F477FF1AC06DE20E94851255
:102640008C0144275527BA014C195D096E097F0991
:102650002AE0CE010E94A212800F911FDF91CF913C
:102660001F910F91FF90EF90DF90CF9008952AE097
:10267000B701A601CE01DF91CF911F910F91FF907D
:10268000EF90DF90CF900C94A2129A01AB016627D5
:1026900057FD6095762F0C94FB124F925F926F92CC
:1026A0007F92AF92BF92CF92DF92EF92FF920F9301
:1026B0001F93CF93DF93CDB7DEB729013A01621B99
:1026C000730B840B950B29893A894B895C892A19EC
:1026D0003B094C095D09298B3A8B4B8B5C8B9B0129
:1026E000AC0169897A898B899C890E94801AE418D7
:1026F000F50806091709A80197010E94C61A2A0DB4
:102700003B1D4C1D5D1DCA01B901DF91CF911F9189
:102710000F91FF90EF90DF90CF90BF90AF907F90A0
:102720006F905F904F900895FC01808191810C948F
:10273000B11BCF93DF93EC0188819981009711F051
:102740000E94B11B198218821D821C821B821A8270
:10275000DF91CF9108950F931F93CF93DF93EC01F7
:102760008B016F5F7F4F888199810E94401C009789
:1027700031F0998388831B830A8381E001C080E064
:10278000DF91CF911F910F910895CF93DF93EC01CB
:1027900088819981892B29F08A819B8186179707E7
:1027A00060F4CE010E94AB13882341F08C819D819F
:1027B000892B19F4E881F981108281E0DF91CF91B2
:1027C0000895EF92FF920F931F93CF93DF93EC0145
:1027D0007B018A01BA010E94C513811104C0CE0198
:1027E0000E94991307C01D830C83B70188819981CA
:1027F0000E94181DCE01DF91CF911F910F91FF9084
:10280000EF900895FC0111821082138212821582CA
:1028100014826115710559F0FB0101900020E9F760
:10282000AF0141505109461B570B0C94E113089519
:102830001F920F920FB60F9211242F933F938F93F5
:102840009F93AF93BF938091BC049091BD04A091DE
:10285000BE04B091BF043091BB0423E0230F2D3799
:1028600020F40196A11DB11D05C026E8230F029694
:10287000A11DB11D2093BB048093BC049093BD04A3
:10288000A093BE04B093BF048091C0049091C10492
:10289000A091C204B091C3040196A11DB11D809303
:1028A000C0049093C104A093C204B093C304BF9129
:1028B000AF919F918F913F912F910F900FBE0F90ED
:1028C0001F9018953FB7F8948091C0049091C1046F
:1028D000A091C204B091C30426B5A89B05C02F3FA8
:1028E00019F00196A11DB11D3FBF6627782F892FD2
:1028F0009A2F620F711D811D911D42E0660F771F97
:10290000881F991F4A95D1F70895CF92DF92EF92D1
:10291000FF92CF93DF936B017C010E946214EB0165
:10292000C114D104E104F10489F00E947F180E94CF
:1029300062146C1B7D0B683E734090F381E0C81AF3
:10294000D108E108F108C851DC4FEACFDF91CF91FF
:10295000FF90EF90DF90CF900895789484B58260D7
:1029600084BD84B5816084BD85B5826085BD85B533
:10297000816085BDEEE6F0E0808181608083E1E8E2
:10298000F0E010828081826080838081816080831A
:10299000E0E8F0E0808181608083E1EBF0E080811D
:1029A00084608083E0EBF0E0808181608083EAE7EF
:1029B000F0E0808184608083808182608083808178
:1029C000816080838081806880831092C100089537
:1029D0008E3008F08E5087702091220390E4299F5A
:1029E00090011124822B80937C0080917A00806476
:1029F00080937A0080917A0086FDFCCF80917800E8
:102A00002091790090E0922B0895833081F028F492
:102A1000813099F08230A1F008958730A9F0883094
:102A2000B9F08430D1F4809180008F7D03C0809113
:102A300080008F7780938000089584B58F7702C0DF
:102A400084B58F7D84BD08958091B0008F7703C0D9
:102A50008091B0008F7D8093B0000895CF93DF9375
:102A600090E0FC01E458FA4F2491FC01E057FA4F42
:102A70008491882349F190E0880F991FFC01E25569
:102A8000FA4FA591B4918C559A4FFC01C591D49100
:102A90009FB7611108C0F8948C91209582238C9384
:102AA000888182230AC0623051F4F8948C91322FCD
:102AB000309583238C938881822B888304C0F8947B
:102AC0008C91822B8C939FBFDF91CF9108950F93B0
:102AD0001F93CF93DF931F92CDB7DEB7282F30E03F
:102AE000F901E859FA4F8491F901E458FA4F149129
:102AF000F901E057FA4F04910023C9F0882321F02F
:102B000069830E9405156981E02FF0E0EE0FFF1F39
:102B1000EC55FA4FA591B4919FB7F8948C9161113F
:102B200003C01095812301C0812B8C939FBF0F9010
:102B3000DF91CF911F910F9108958091F40490E05F
:102B40002091F504821B910908952091F50480914C
:102B5000F404281750F4E22FF0E0EA50FB4F808194
:102B600090E02F5F2093F50408958FEF9FEF089575
:102B7000E091F5048091F404E81730F4F0E0EA50B5
:102B8000FB4F808190E008958FEF9FEF08950895A7
:102B9000CF92DF92EF92FF920F931F93CF93DF9329
:102BA0007C01CB018A012091D004222389F0EB0122
:102BB0006B01C40ED51ECC15DD0569F06991D701F6
:102BC000ED91FC910190F081E02DC7010995F3CFC3
:102BD000642F0E942917C801DF91CF911F910F9197
:102BE000FF90EF90DF90CF900895CF93DF931F92E7
:102BF000CDB7DEB769832091D0042223D1F0209194
:102C0000D104203240F021E030E0FC013383228304
:102C100080E090E015C08091D204E82FF0E0ED5202
:102C2000FB4F998190838F5F8093D2048093D1046E
:102C300005C061E0CE0101960E94291781E090E075
:102C40000F90DF91CF910895FC011382128248EE1C
:102C500053E060E070E0448355836683778380E4CB
:102C600094E09183808308951092F5041092F40407
:102C70001092D2041092D1040C947416862F413213
:102C800008F040E266EF74E00E9492161092F5049C
:102C90008093F404089521E00C943E1681E0809323
:102CA000D0046093F3041092D2041092D1040895DA
:102CB0000C944E160F93062F21E04091D10463ED42
:102CC00074E08091F3040E94D6161092D204109200
:102CD000D1041092D0040F91089561E00C945A161B
:102CE00084EC94E00C9424161092830581E0809388
:102CF00081051092800561E082E10E94671561E024
:102D000083E10E946715E9EBF0E080818E7F80838C
:102D100080818D7F808388E48093B80085E48093F0
:102D2000BC000895413208F03FC090918305911195
:102D3000FCCF91E090938305209381052FEF2093A2
:102D4000160510925B05240F20935A059093820577
:102D500090918205880F892B809382058091800550
:102D6000813041F410928005809182058093BB00F0
:102D700085EC01C085EE8093BC0080918305813095
:102D8000E1F380915B05841710F440915B052CE51D
:102D900035E0FB01D9018A2F821B841718F48D912D
:102DA0008193F9CF842F089580E008950F934132E5
:102DB00008F046C0909183059111FCCF92E090936A
:102DC0008305009381059FEF9093160510925B0594
:102DD00040935A05FB016CE575E0DB019A2F961BC9
:102DE000941718F491919D93F9CF109282059091C8
:102DF0008205880F892B8093820580918005813020
:102E000041F410928005809182058093BB0085EC8F
:102E100001C085EE8093BC00222321F080918305C0
:102E20008230E1F3809116058F3F61F080911605A5
:102E3000803251F080911605803341F483E007C061
:102E400081E005C080E003C082E001C084E00F9112
:102E50000895613298F420918305243089F46093B9
:102E60003805FC018AE395E0DC012A2F281B261790
:102E700018F421912D93F9CF80E0089581E0089511
:102E800082E0089585ED8093BC008091BC0084FDB4
:102E9000FCCF10928305089585EC8093BC001092BE
:102EA000830508951F920F920FB60F9211242F934E
:102EB0003F934F935F936F937F938F939F93AF93C2
:102EC000BF93EF93FF938091B900887F803609F418
:102ED0009CC068F5883209F45BC090F4803109F435
:102EE00054C038F4882309F4F5C0883009F44DC083
:102EF000F5C0883109F44CC0803209F45DC0EEC0E1
:102F0000803409F468C048F4803309F455C088332C
:102F100009F0E4C080931605A8C0803509F44FC0BD
:102F2000883509F45DC0883409F0D8C0D5C0883927
:102F300009F4C6C0A8F4883709F467C038F48836A5
:102F400009F463C0803709F460C0C8C0883809F448
:102F5000B7C0803909F45FC0803809F0BFC05BC0DA
:102F6000803B09F485C038F4803A09F466C0883A99
:102F700009F47EC0B3C0803C09F4A6C0883C09F4C3
:102F8000A3C0883B09F489C0A9C08091820510C004
:102F900090915B0580915A05981770F5E0915B055B
:102FA00081E08E0F80935B05F0E0E45AFA4F808158
:102FB0008093BB0085EC85C0809316058DC0E091A1
:102FC0005B0581E08E0F80935B058091BB00F0E094
:102FD000E45AFA4F808390915B0580915A056DC049
:102FE000E0915B0581E08E0F80935B058091BB00D3
:102FF000F0E0E45AFA4F80838091810581116CC022
:1030000081E08093800584EA60C083E0809383053B
:1030100010921705CFCF80911705803208F050C06D
:10302000E091170581E08E0F809317058091BB001A
:10303000F0E0E85EFA4F8083BDCF809117058032C3
:1030400030F4E0911705F0E0E85EFA4F10820E943C
:1030500042176091170570E0E0917C05F0917D05C5
:1030600088E195E00995109217050E944C1736C02B
:1030700084E0809383051092390510923805E09121
:103080007E05F0917F05099580913805811105C075
:1030900081E08093380510923A05E091390581E08E
:1030A0008E0F80933905F0E0E65CFA4F80818093C3
:1030B000BB009091390580913805981708F47ACFB4
:1030C00085E88093BC000AC085EC8093BC00109218
:1030D000830504C0109216050E944217FF91EF91DC
:1030E000BF91AF919F918F917F916F915F914F9120
:1030F0003F912F910F900FBE0F901F90189508953C
:103100005058BB27AA270ED047C138D130F03DD147
:1031100020F031F49F3F11F41EF42DC10EF4E09520
:10312000E7FBFAC0E92F49D180F3BA1762077307AA
:103130008407950718F071F49EF578C10EF4E095B8
:103140000B2EBA2FA02D0B01B90190010C01CA0161
:10315000A0011124FF27591B99F0593F50F4503E0C
:1031600068F11A16F040A22F232F342F4427585FFE
:10317000F3CF469537952795A795F0405395C9F716
:103180007EF41F16BA0B620B730B840BBAF09150CE
:10319000A1F0FF0FBB1F661F771F881FC2F70EC06D
:1031A000BA0F621F731F841F48F487957795679540
:1031B000B795F7959E3F08F0B3CF9395880F08F029
:1031C0009927EE0F9795879508950CD0E5C0DDD02F
:1031D00040F0D4D030F021F45F3F19F09DC0511180
:1031E00026C1C9C0EAD098F39923C9F35523B1F396
:1031F000951B550BBB27AA2762177307840738F066
:103200009F5F5F4F220F331F441FAA1FA9F333D0C4
:103210000E2E3AF0E0E830D091505040E695001C78
:10322000CAF729D0FE2F27D0660F771F881FBB1F34
:10323000261737074807AB07B0E809F0BB0B802D0E
:10324000BF01FF2793585F4F2AF09E3F510568F05A
:1032500063C0EDC05F3FECF3983EDCF38695779555
:103260006795B795F7959F5FC9F7880F911D96955C
:10327000879597F90895E1E0660F771F881FBB1FB8
:10328000621773078407BA0720F0621B730B840B65
:10329000BA0BEE1F88F7E095089597D088F09F57F6
:1032A00090F0B92F9927B751A0F0D1F0660F771F92
:1032B000881F991F1AF0BA95C9F712C0B13081F072
:1032C000B5D0B1E00895B2C0672F782F8827B85FD6
:1032D00039F0B93FCCF3869577956795B395D9F7D3
:1032E0003EF490958095709561957F4F8F4F9F4FDD
:1032F000089585D080F09F3740F491110EF097C06B
:1033000060E070E080E89FEB089526F41B16611DD5
:10331000711D811D07C021C097F99F6780E870E08B
:1033200060E00895882371F4772321F09850872B6B
:10333000762F07C0662311F499270DC09051862B74
:1033400070E060E02AF09A95660F771F881FDAF721
:10335000880F9695879597F908959F3F31F0915082
:1033600020F4879577956795B795880F911D969569
:10337000879597F908959FEF80EC089500240A94AB
:103380001616170618060906089500240A94121640
:103390001306140605060895092E0394000C11F473
:1033A000882352F0BB0F40F4BF2B11F460FF04C020
:1033B0006F5F7F4F8F4F9F4F089557FD9058440F79
:1033C000551F59F05F3F71F04795880F97FB991F84
:1033D00061F09F3F79F08795089512161306140641
:1033E000551FF2CF4695F1DF08C0161617061806CE
:1033F000991FF1CF86957105610508940895E5DF61
:10340000A0F0BEE7B91788F4BB279F3860F4161602
:10341000B11D672F782F8827985FF7CF869577950E
:103420006795B11D93959639C8F30895E894BB2725
:1034300066277727CB0197F908950BD0ADCF9EDF94
:1034400028F0A3DF18F0952309F066CF94CF11245C
:10345000EECFB3DFA0F3959FD1F3950F50E0551F4A
:10346000629FF001729FBB27F00DB11D639FAA27D9
:10347000F00DB11DAA1F649F6627B00DA11D661F28
:10348000829F2227B00DA11D621F739FB00DA11D49
:10349000621F839FA00D611D221F749F3327A00D03
:1034A000611D231F849F600D211D822F762F6A2F9F
:1034B00011249F5750408AF0E1F088234AF0EE0F24
:1034C000FF1FBB1F661F771F881F91505040A9F731
:1034D0009E3F510570F020CFAACF5F3FECF3983E9E
:1034E000DCF3869577956795B795F795E7959F5F98
:1034F000C1F7FE2B880F911D9695879597F9089532
:10350000DB018F939F930E94E51ABF91AF91A29F19
:10351000800D911DA39F900DB29F900D11240895D1
:1035200097FB072E16F4009407D077FD09D00E9470
:10353000F01A07FC05D03EF4909581959F4F0895B1
:10354000709561957F4F0895A1E21A2EAA1BBB1BAF
:10355000FD010DC0AA1FBB1FEE1FFF1FA217B3075F
:10356000E407F50720F0A21BB30BE40BF50B661F75
:10357000771F881F991F1A9469F760957095809539
:1035800090959B01AC01BD01CF010895052E97FBDD
:103590001EF400940E94DD1A57FD07D00E94A41A61
:1035A00007FC03D04EF40C94DD1A509540953095ED
:1035B00021953F4F4F4F5F4F08959095809570959F
:1035C00061957F4F8F4F9F4F08950E940A1BA59FC3
:1035D000900DB49F900DA49F800D911D112408950E
:1035E000AA1BBB1B51E107C0AA1FBB1FA617B70729
:1035F00010F0A61BB70B881F991F5A95A9F7809545
:103600009095BC01CD010895EE0FFF1F0590F49138
:10361000E02D0994A29FB001B39FC001A39F700D3C
:10362000811D1124911DB29F700D811D1124911DCA
:103630000895CF93DF938230910510F482E090E0FB
:10364000E0918605F091870520E030E0A0E0B0E051
:10365000309739F14081518148175907B8F0481720
:10366000590771F482819381109729F013969C93E6
:103670008E9312972CC0909387058093860527C060
:103680002115310531F04217530718F0A901DB016C
:1036900001C0EF019A01BD01DF010280F381E02D3D
:1036A000D7CF21153105F9F0281B390B243031050E
:1036B00080F48A819B816115710521F0FB01938360
:1036C000828304C09093870580938605FE0132961D
:1036D00044C0FE01E20FF31F819391932250310900
:1036E000398328833AC02091840530918505232BA6
:1036F00041F420910201309103013093850520931C
:10370000840520910001309101012115310541F41A
:103710002DB73EB74091040150910501241B350B94
:10372000E0918405F0918505E217F307A0F42E1BC4
:103730003F0B2817390778F0AC014E5F5F4F241715
:10374000350748F04E0F5F1F509385054093840561
:103750008193919302C0E0E0F0E0CF01DF91CF913F
:103760000895CF93DF93009709F487C0FC01329747
:1037700013821282C0918605D0918705209781F42B
:1037800020813181280F391F809184059091850512
:103790008217930779F5F0938505E09384056DC052
:1037A000DE0120E030E0AE17BF0750F412964D91D5
:1037B0005C9113979D014115510509F1DA01F3CF91
:1037C000B383A28340815181840F951F8A179B0781
:1037D00071F48D919C911197840F951F029691839E
:1037E000808312968D919C911397938382832115E8
:1037F000310529F4F0938705E09386053EC0D90191
:103800001396FC93EE9312974D915D91A40FB51F03
:10381000EA17FB0779F480819181840F951F029646
:10382000D90111969C938E938281938113969C93D8
:103830008E931297E0E0F0E08A819B81009719F067
:10384000FE01EC01F9CFCE01029628813981820F69
:10385000931F20918405309185052817390769F455
:10386000309729F4109287051092860502C01382C2
:103870001282D0938505C0938405DF91CF9108957E
:10388000A0E0B0E0E6E4FCE10C94231DEC01CB01E8
:10389000209719F40E94191BB8C0FE01E60FF71F0C
:1038A0009E0122503109E217F30708F4ACC0D90198
:1038B0000D911C91119706171707B8F005301105E7
:1038C00008F49FC0A801445051094617570708F44F
:1038D00098C002501109061B170B019311936D93A9
:1038E0007C93CF010E94B11B8CC05B01A01AB10A6E
:1038F0004E01800E911EA0918605B0918705612C26
:10390000712C60E070E0109709F449C0A815B90562
:10391000C9F5ED90FC901197670142E0C40ED11CEF
:10392000CA14DB0478F147018A189B08640142E05D
:10393000C40ED11C1296BC9012971396AC91B5E0B0
:10394000CB16D10440F0B282A38391828082D90148
:103950008D939C9309C00E5F1F4F0E0D1F1DF90123
:1039600011830083EB2DFA2F6115710531F0DB0116
:103970001396FC93EE93129744C0F0938705E0935F
:1039800086053FC06D917C9111976616770608F405
:103990003B01BD0112960D90BC91A02DB4CF60915A
:1039A00084057091850568157905E9F4681679062E
:1039B000D0F440910001509101014115510541F4AD
:1039C0004DB75EB76091040170910501461B570B1E
:1039D000E417F507C0F4F0938505E0938405F90139
:1039E000918380830EC00E94191B7C01009759F0BF
:1039F000A801BE010E940F1DCE010E94B11BC7018C
:103A000004C0CE0102C080E090E0CDB7DEB7EEE0AA
:103A10000C943F1D81E090E0F8940C94561DFB013E
:103A2000DC0102C001900D9241505040D8F708953A
:103A3000FB01DC0101900D920020E1F708952F9227
:103A40003F924F925F926F927F928F929F92AF922E
:103A5000BF92CF92DF92EF92FF920F931F93CF937B
:103A6000DF93CDB7DEB7CA1BDB0B0FB6F894DEBF12
:103A70000FBECDBF09942A88398848885F846E8438
:103A80007D848C849B84AA84B984C884DF80EE8082
:103A9000FD800C811B81AA81B981CE0FD11D0FB68B
:103AA000F894DEBF0FBECDBFED01089515E0CCEB5D
:103AB000D5E004C0FE010E94061B2296CE3BD10732
:063AC000C9F7F894FFCFE6
:103AC60000008805800001000000110010000F00B2
:103AD6000E00000103070F1F3F7F0080C0E0F0F8D3
:103AE600FCFE0000000000000000000000000000D6
:103AF60000000000000000000000000000000000C0
:103B060000000000000000000000000000000000AF
:103B1600000000000000000000000000000000009F
:103B2600008080800000000000000000000000000F
:103B36000000008080C0C0000000000000000000FF
:103B4600000000000000000000000000000000006F
:103B5600000000000000000000000000000000005F
:103B6600000000000000000000000000000000004F
:103B760000000000000080C0E0F0F8FCF8E0000063
:103B860000000000000000000000000000000080AF
:103B9600808080800080800000000080808080809F
:103BA60000FFFFFF00000000808080800000808012
:103BB600000080FFFF808000808000808080800081
:103BC60080800000000000808000008C8E84000051
:103BD60080F8F8F8800000000000000000000000F7
:103BE6000000F0F0F0F0F0F0F0F0F0F0F0F0E0E0CF
:103BF600C08000E0FCFEFFFFFF7FFFFFFFFFFF002E
:103C060000000000000000000000000000FEFFC7EA
:103C16000101010183FFFF00007CFEC701010101D4
:103C260083FFFFFF0038FEC78301010183C7FFFF43
:103C3600000001FFFF010100FFFF07010101000075
:103C46007FFF80000000FFFF7F0000FFFFFF0000F6
:103C560001FFFFFF0100000000000000000000005F
:103C66000000030F3F7F7FFFFFFFFFFFFFFFE7C758
:103C7600C78F8F9FBFFFFFC3C0F0FFFFFFFFFFFC93
:103C8600FCFCFCFCFCFCFCF8F8F0F0E0C0000103D6
:103C960003030303010303000000000103030303FE
:103CA60001010301000000010303030301010303F3
:103CB60000000003030000000303000000000000F2
:103CC60000010303030303010000000103010000D8
:103CD60000030301000000000000000000000000D7
:103CE6000000014C444420436F6E766572746F7217
:103CF6002054657374004368616E6E656C20313ABA
:103D06002020200025004368616E6E656C20323AE3
:103D1600202020004368616E6E656C20333A2020B7
:103D260020004368616E6E656C20343A20202000C6
:103D3600354B00374B0031304B0031324B003134BC
:103D46004B0031384B0032304B0050460043520096
:103D5600524300000102030405060708090A0B1175
:103D66001111256464444444576464575757646486
:103D7600646464646464646464642D2D2D646464A2
:103D860019191964646411111132640000002D645C
:103D960064640A0F23646464000032000000009328
:103DA6000B451233124D074E076D075507610796EF
:103DB600067D074B094A097E07C20706085608749E
:103DC60008EB0800000000930B4512FA0E4D074E53
:103DD600076D075507610796067D074B094A09BF18
:103DE6000D870C060856087408EB080D0A006E616C
:103DF6006E00696E66006F7666002E000000000099
:0C3E0600F515C8159D15A515B815C715B4
:00000001FF
