:100000000C94DE020C9406030C9406030C94060375
:100010000C9406030C9406030C9406030C9406033C
:100020000C9406030C9406030C9406030C9406032C
:100030000C9406030C9406030C9406030C9406031C
:100040000C94EB120C9406030C9406030C94060318
:100050000C9406030C9406030C9406030C940603FC
:100060000C9425160C94060300000000003E5B4F24
:100070005B3E3E6B4F6B3E1C3E7C3E1C183C7E3C08
:10008000181C577D571C1C5E7F5E1C00183C180016
:10009000FFE7C3E7FF0018241800FFE7DBE7FF30A6
:1000A000483A060E2629792926407F050507407F14
:1000B00005253F5A3CE73C5A7F3E1C1C08081C1C87
:1000C0003E7F14227F22145F5F005F5F06097F017D
:1000D0007F006689956A606060606094A2FFA29468
:1000E00008047E040810207E201008082A1C080836
:1000F0001C2A08081E101010100C1E0C1E0C303884
:100100003E3830060E3E0E06000000000000005F84
:1001100000000007000700147F147F14242A7F2AA0
:100120001223130864623649562050000807030062
:10013000001C2241000041221C002A1C7F1C2A08AE
:10014000083E080800807030000808080808000011
:1001500060600020100804023E5149453E00427F85
:10016000400072494949462141494D331814127FD4
:100170001027454545393C4A494931412111090774
:100180003649494936464949291E000014000000F5
:1001900040340000000814224114141414140041C7
:1001A00022140802015909063E415D594E7C121184
:1001B000127C7F494949363E414141227F414141BC
:1001C0003E7F494949417F090909013E4141517337
:1001D0007F0808087F00417F41002040413F017FA8
:1001E000081422417F404040407F021C027F7F0470
:1001F00008107F3E4141413E7F090909063E4151B9
:10020000215E7F09192946264949493203017F01A8
:10021000033F4040403F1F2040201F3F4038403FA9
:10022000631408146303047804036159494D4300BF
:100230007F4141410204081020004141417F0402F6
:10024000010204404040404000030708002054548D
:1002500078407F284444383844444428384444286B
:100260007F385454541800087E090218A4A49C78BE
:100270007F0804047800447D40002040403D007F1A
:100280001028440000417F40007C047804787C08FA
:100290000404783844444438FC18242418182424CE
:1002A00018FC7C08040408485454542404043F44B3
:1002B000243C4040207C1C2040201C3C4030403CE2
:1002C00044281028444C9090907C4464544C440042
:1002D00008364100000077000000413608000201A6
:1002E0000204023C2623263C1EA1A161123A404092
:1002F000207A38545455592155557941225454780F
:1003000042215554784020545579400C1E527212A7
:100310003955555559395454545939555454580030
:1003200000457C410002457D420001457C407D1234
:1003300011127DF0282528F07C5455450020545496
:100340007C547C0A097F4932494949323A44444441
:100350003A324A4848303A4141217A3A424020787C
:10036000009DA0A07D3D4242423D3D4040403D3C7D
:1003700024FF2424487E4943662B2FFC2F2BFF09A2
:1003800029F620C0887E0903205454794100004496
:100390007D413048484A32384040227A007A0A0A81
:1003A000727D0D19317D2629292F282629292926F4
:1003B00030484D4020380808080808080808382F39
:1003C00010C8ACBA2F102834FA00007B00000814C3
:1003D0002A142222142A14085500550055AA55AA99
:1003E00055AAFF55FF55FF000000FF00101010FF39
:1003F00000141414FF001010FF00FF1010F010F094
:10040000141414FC001414F700FF0000FF00FF1484
:1004100014F404FC141417101F10101F101F1414D0
:10042000141F00101010F0000000001F101010101A
:100430001F10101010F010000000FF10101010100E
:1004400010101010FF10000000FF140000FF00FF4C
:1004500000001F10170000FC04F4141417101714E8
:1004600014F404F40000FF00F7141414141414140A
:10047000F700F7141414171410101F101F1414147D
:10048000F4141010F010F000001F101F0000001FE7
:1004900014000000FC140000F010F01010FF10FF1A
:1004A000141414FF141010101F00000000F010FFAF
:1004B000FFFFFFFFF0F0F0F0F0FFFFFF0000000093
:1004C00000FFFF0F0F0F0F0F3844443844FC4A4A17
:1004D0004A347E02020606027E027E0263554941CC
:1004E000633844443C04407E201E2006027E020203
:1004F00099A5E7A5991C2A492A1C4C7201724C3017
:100500004A4D4D303048784830BC625A463D3E49ED
:100510004949007E0101017E2A2A2A2A2A44445F91
:10052000444440514A444040444A51400000FF0185
:1005300003E080FF000008086B6B08361236243693
:10054000060F090F060000181800000010100030F8
:1005500040FF0101001F01011E00191D1712003C80
:100560003C3C3C00000000000000000800020100CC
:10057000000304070000000000000000010204085E
:1005800010204080010204081020010204081020FD
:100590000404040404040404020202020202030329
:1005A0000303030300000000250028002B000000C7
:1005B0000000240027002A00A304431511241FBEB5
:1005C000CFEFD8E0DEBFCDBF13E0A0E0B1E0E6E9B9
:1005D000F3E302C005900D92A23EB107D9F724E0E3
:1005E000A2EEB3E001C01D92A63FB207E1F715E00D
:1005F000CCEBD5E004C02297FE010E94B119C83BA4
:10060000D107C9F70E948D110C94C9190C940000F0
:10061000AF92BF92CF92DF92EF92FF920F931F9310
:10062000BC01882777FD8095982F1F921F921F92FB
:1006300024E62F93A12CB12C6501EE24EA941FE04F
:10064000F12E00E010E020E030E0A9010E94A412A9
:100650000F900F900F900F90CB011F910F91FF9073
:10066000EF90DF90CF90BF90AF900895AF92BF9280
:10067000CF92DF92EF92FF920F931F931F921F92E0
:100680001F921F9244E6A42EB12CC12CD12CE12C38
:10069000F12C87012FEF33E040E050E06CE172E095
:1006A00080E090E00E94A4126091E4037091E50361
:1006B000882777FD8095982F1F921F9220E12F9316
:1006C0001F92A12CB12C6501EE24EA9413E0F12EC7
:1006D00000E010E022E830E040E050E00E94A41288
:1006E0007093E3036093E20361E070E080E090E0E8
:1006F0000E9458138BEF93E00E94210F61E08BEF73
:1007000093E00E94C70B40E050E061E070E08BEFA7
:1007100093E00E94CD0B40E050E060E070E08BEF92
:1007200093E00E94C10B63E273E08BEF93E00E94C1
:10073000E71149E050E060E070E08BEF93E00E9449
:10074000C10B66E373E08BEF93E00E94DA118091B6
:1007500010010E94BB134AE050E0BC018BEF93E014
:100760000E949C1264E473E08BEF93E00E94E71117
:1007700066E473E08BEF93E00E94DA1180910E0142
:100780000E94BB134AE050E0BC018BEF93E00E9453
:100790009C1264E473E08BEF93E00E94E71164E540
:1007A00073E08BEF93E00E94DA1180910C010E94BC
:1007B000BB134AE050E0BC018BEF93E00E949C1217
:1007C00064E473E08BEF93E00E94E71162E673E06C
:1007D0008BEF93E00E94DA1180910A010E94BB1313
:1007E0000E9408034AE050E0BC018BEF93E00E94B6
:1007F0009C1264E473E08BEF93E00E94E7118BEFAF
:1008000093E00E94CD1020E030E040E050E060E056
:100810008AEF93E00E94FE0420E030E040E050E0E8
:1008200061E08AEF93E00E94FE0420E030E040E0C7
:1008300050E062E08AEF93E00E94FE0428EE33E08D
:1008400040E050E063E08AEF93E00E94FE042FEF67
:100850003FE040E050E064E08AEF93E00E94FE0455
:1008600020E030E040E050E065E08AEF93E00E9455
:10087000FE0420E030E040E050E066E08AEF93E0E4
:100880000E94FE0420E030E040E050E067E08AEFA4
:1008900093E00E94FE0420E030E040E050E068E099
:1008A0008AEF93E00E94FE0428EE33E040E050E03F
:1008B00069E08AEF93E00E94FE042FEF3FE040E002
:1008C00050E06AE08AEF93E00E94FE0420E030E00E
:1008D00040E050E06BE08AEF93E00E94FE0420E0ED
:1008E00030E140E050E06CE08AEF93E00E94FE04CB
:1008F00020E030E140E050E06DE08AEF93E00E94BC
:10090000FE0420E030E140E050E06EE08AEF93E04A
:100910000E94FE048DB79EB708960FB6F8949EBF4E
:100920000FBE8DBF20E030E140E050E06FE08AEF85
:1009300093E01F910F91FF90EF90DF90CF90BF90C9
:10094000AF900C94FE0464E08BEF93E00E94080FDC
:1009500060E48AEF93E00C94FB048AEF93E00E943A
:100960006B0540E050E068EC74E48AEF93E00E948D
:10097000980521E04CE362E08BEF93E00E949C0F2E
:100980008BEF93E00E94CD1060ED77E080E090E087
:100990000E9458138BEF93E00E94210F21E030E07A
:1009A0004AE050E06AE070E08BEF93E00E94510E65
:1009B0008BEF93E00E94CD1060ED77E080E090E057
:1009C0000E9458138BEF93E00E94210F8091B80092
:1009D0008CE08093B800E6EEF3E01192119283E090
:1009E000EA3FF807D1F70895DC01ED91FC91019001
:1009F000F081E02D0994FC0160830895FF920F932C
:100A00001F93CF93DF9300D0CDB7DEB7162FF52E0F
:100A1000032FFC01608186E394E02A8349830E94CE
:100A20002115E0913604F091370484E0189FB0015D
:100A300011246A5F7F4F0190F081E02D86E394E0FE
:100A400009954981642F7F2D86E394E00E94F40488
:100A50006F2D70E086E394E00E94F4042A81622FF7
:100A6000702F86E394E00E94F404602F70E086E328
:100A700094E00E94F40486E394E00F900F90DF91DD
:100A8000CF911F910F91FF900C9440151F93CF931E
:100A9000DF931F92CDB7DEB7162FFC01608186E38E
:100AA00094E049830E942115612F86E394E00E941F
:100AB000C8144981642F86E394E00E94C81486E339
:100AC00094E00F90DF91CF911F910C94401540E07E
:100AD00060E00C944605CF93DF93EC0186E394E04D
:100AE0000E940715CE01DF91CF910C9467051F93EB
:100AF000CF93DF93EC01162F688186E394E00E9488
:100B00002115612F86E394E00E94C81486E394E0E7
:100B10000E94401541E0688186E394E00E941E1522
:100B200086E394E00E947814DF91CF911F9108959D
:100B3000CF92DF92EF92FF921F93CF93DF93EC015E
:100B4000CB01BA0126E636E646E65FE30E94F018DE
:100B50009B01AC0160E27CEB8EEB95E40E94B81740
:100B600020E030E040E85FE30E94531720E030E0EF
:100B700040E05FE30E9454170E944C186B017C0117
:100B800060E0CE010E947705182F482F4F76406114
:100B900060E0CE010E944605C701B6010E94201800
:100BA000462F6EEFCE010E944605412F60E0CE0138
:100BB0000E94460565E070E080E090E00E945813D6
:100BC000412F416A60E0CE01DF91CF911F91FF90EC
:100BD000EF90DF90CF900C9446052F923F924F926A
:100BE0005F926F927F928F929F92AF92BF92CF92BD
:100BF000DF92EF92FF920F931F93CF93DF9300D07A
:100C000000D0CDB7DEB74C017C836B836A015901FC
:100C1000C8018701AC014C195D0957FF03C051950C
:100C20004195510995016B817C81261B370B37FF5C
:100C300003C031952195310922242394312C2417A6
:100C4000350714F0212C312C2114310459F03A2DA0
:100C50002B2D5C01832F922F3B812C81DC82CB8258
:100C6000C32ED22EAB81BC81AA16BB065CF43C2DF0
:100C70002D2D6C01832F922F3B812C81BC82AB8266
:100C8000A32EB22E2501EB81FC814E1A5F0A3C0196
:100C90006C187D0877FE03C071946194710872012D
:100CA00057FE03C0FFEFEF1AFF0AF594E794C8164A
:100CB000D9062CF421E030E03A83298324C06FEF79
:100CC0007FEF7A8369831FC0D401ED91FC9100848A
:100CD000F185E02D980121143104D9F04B815C811C
:100CE000B601C4010995E618F708F7FE06C0E981C8
:100CF000FA81CE0EDF1EE40CF51C2B813C812F5FA8
:100D00003F4F3C832B836B817C81A616B706E4F6AC
:100D100004C0A6016B817C81E4CF0F900F900F90EF
:100D20000F90DF91CF911F910F91FF90EF90DF9087
:100D3000CF90BF90AF909F908F907F906F905F907B
:100D40004F903F902F9008950895DC01ED91FC9114
:100D50000480F581E02D09940F931F93DC01ED9140
:100D6000FC91008CF18DE02D09951F910F91089554
:100D70000F931F93DC01ED91FC91028CF38DE02D1C
:100D800009951F910F910895EF92FF920F931F9372
:100D9000DC01ED91FC91048CF58DE02D09951F91FE
:100DA0000F91FF90EF9008950895AF92BF92CF9268
:100DB000DF92EF92FF920F931F93CF93DF9300D0B8
:100DC00000D0CDB7DEB75C0169017801DC01ED919F
:100DD000FC910680F781E02D4B835C8369837A83E5
:100DE0000995D501ED91FC914B815C818A010C0D37
:100DF0001D1D015011090088F189E02D69817A815A
:100E00009B01C5010995D501ED91FC910288F389FB
:100E1000E02DC5010F900F900F900F90DF91CF91B3
:100E20001F910F91FF90EF90DF90CF90BF90AF9008
:100E30000994AF92BF92CF92DF92EF92FF920F93FD
:100E40001F93CF93DF9300D000D0CDB7DEB75C0106
:100E50006901DC01ED91FC910680F781E02D4B8367
:100E60005C8369837A830995D501ED91FC91698151
:100E70007A819B012C0D3D1D215031090088F1899B
:100E8000E02D78014B815C818A01C5010995D5016E
:100E9000ED91FC910288F389E02DC5010F900F9030
:100EA0000F900F90DF91CF911F910F91FF90EF90D6
:100EB000DF90CF90BF90AF9009944F925F926F9266
:100EC0007F928F929F92AF92BF92CF92DF92EF92DA
:100ED000FF920F931F93CF93DF9300D0CDB7DEB770
:100EE0006C014A0159013801DC01ED91FC91068049
:100EF000F781E02D69837A8309956981462E7A818D
:100F0000572EA40CB51CD601ED91FC914A145B043C
:100F10006CF40484F585E02D87019301A401B201EE
:100F2000C6010995BFEF4B1A5B0AEDCF0288F38922
:100F3000E02DC6010F900F90DF91CF911F910F917F
:100F4000FF90EF90DF90CF90BF90AF909F908F90E9
:100F50007F906F905F904F900994EF92FF920F9364
:100F60001F93DC01ED91FC9111971A960D911C9144
:100F70001B9718962D913C911997048CF58DE02DB7
:100F80007B0140E050E060E070E009951F910F9117
:100F9000FF90EF900895CF92DF92EF92FF920F9320
:100FA0001F93CF93DF9300D000D000D0CDB7DEB732
:100FB0006C01DC01ED91FC916217730789F4041751
:100FC00015072CF4942F852FA801092F182F9801AD
:100FD000241B350B2F5F3F4F008CF18DE02D12C08D
:100FE0004017510709F5261737072CF4962F872F3E
:100FF000B901292F382F261B370B2F5F3F4F028C4B
:10100000F38DE02D8701C601099526960FB6F89459
:10101000DEBF0FBECDBFDF91CF911F910F91FF902B
:10102000EF90DF90CF9008950680F781E02D2D831B
:101030003E834B835C8369837A830995D601ED9166
:10104000FC910088F189E02D2D813E814B815C81EE
:1010500069817A81C6010995D601ED91FC910288DA
:10106000F389E02DC60126960FB6F894DEBF0FBEB9
:10107000CDBFDF91CF911F910F91FF90EF90DF9047
:10108000CF9009946F927F928F929F92AF92BF926E
:10109000CF92DF92EF92FF920F931F93CF93DF9344
:1010A000EC015B016A0139014801E881F9810680A0
:1010B000F781E02D0995E881F9810684F785E02D17
:1010C00087019301A601B501CE010995E881F98157
:1010D000A601480D591D415051090684F785E02DA0
:1010E0009301B501CE010995E881F9810484F58564
:1010F000E02D9401A601B501CE010995E881F981A1
:10110000B501660D771D615071090484F585E02DE8
:101110009401A601CE010995E881F9810288F3893D
:10112000E02DCE01DF91CF911F910F91FF90EF90B5
:10113000DF90CF90BF90AF909F908F907F906F90F7
:1011400009940895FC016370658B848195812681E3
:101150003781613039F0633029F091878087338798
:101160002287089531872087938782870895FC011D
:101170001382128284E793E0918380837583648372
:10118000578346837187608753874287158A158600
:1011900014861786168621E0248B8FEF9FEF938BA2
:1011A000828B918B808B268B178A118E108E0895DF
:1011B0002F923F924F925F926F927F928F929F9267
:1011C000AF92BF92CF92DF92EF92FF920F931F9355
:1011D000CF93DF93CDB7DEB76B970FB6F894DEBF32
:1011E0000FBECDBF9B8F8A8F4B015A011B870A8789
:1011F0003701C982DC0158964D915C915997411590
:10120000510509F0E7C018968D919C9119976817C0
:1012100079070CF0C6C11A968D919C911B97A81660
:10122000B9060CF0BEC14C2C512CFB0136E0C39E1C
:10123000E00DF11D1124F88BEF871E161F060CF030
:10124000B0C1C20133E0880F991F3A95E1F79A8B3C
:10125000898B8A0D9B1D181619060CF0A2C1579692
:101260008C91811103C0203B08F02F5FAA8DBB8DAC
:10127000ED91FC9111970680F781E02DCD01298F2A
:101280000995F981EF2FF0E0FC8BEB8B14019F8225
:101290008E82188608E6C02E00E0D02EC818D90825
:1012A000298D35E0239FC00CD11C1124F601E20DDD
:1012B000F31D44914E87BD82AC82BB82AA8258E066
:1012C0005C878E8580FF13C0AA8DBB8DED91FC914C
:1012D000B981B13031F40084F185E02D2A853B8558
:1012E00016C00284F385E02DEA84FB841BC0EA85E6
:1012F000FB856E167F06F9F0AA8DBB8DED91FC91F2
:10130000B981B13059F40084F185E02D93014A810F
:101310005B81B1018A8D9B8D09950DC00284F38597
:10132000E02D7301820192014C815D816E817F818C
:101330008A8D9B8D0995EE85E695EE87FC85F150AB
:10134000FC872C813D814B895C89240F351F3D83AF
:101350002C838A819B8101969B838A83F111B1CF73
:1013600098859F5F9887AE81BF81A40FB51FBF830B
:10137000AE83BFEF2B1A3B0A953009F097CFEA8571
:10138000FB856E167F0609F4EAC0AA8DBB8DED9130
:10139000FC91B981B13071F4B4016B5F7F4F04846B
:1013A000F585E02D830128E030E0A5018A8D9B8D35
:1013B0000995D5C06F857889641975090284F3850C
:1013C000E02D730109891A899201A5018A8D9B8DEF
:1013D0000995C5C0FA01349634913297859194915C
:1013E000231BB7E02B9F800D911D1124FA0125913D
:1013F00034913A8B298BFC01459154915B834A834C
:10140000FC01329654915E873196A491AF87329653
:10141000249031961491B981B23058F0422C552461
:1014200047FC5094E12FFF27E7FDF095FD87EC87FF
:1014300004C01D861C86412C512CEA8DFB8DA08199
:10144000B1811696ED91FC9117978A8D9B8D099528
:10145000F9816F2E712C469C9001479C300D569C53
:10146000300D1124280D391D3F832E83412C512C22
:10147000D12C7E8A6D8AA401420D511D27FC5A95FC
:1014800059874887C501810F911D17FD9A95988F3F
:101490008F8B4F85D41608F062C08D2D90E02C857F
:1014A0003D85280F391F269DD001279DB00D369D03
:1014B000B00D1124AA0DBB1DBD83AC838884998413
:1014C0002E803F80C42CB885CB1AEF89F88DE80FA9
:1014D000F91FFC8BEB8B9C2D980D882D2885821B8A
:1014E0003E858317C8F5977061F48A819B810196C8
:1014F000E989FA89AA81BB81EA0FFB1F54909B837B
:101500008A8357FE20C0AA8DBB8DED91FC91B981D5
:10151000B13061F40084F185E02D2A853B854B894B
:101520005C89B4018A8D9B8D09950DC00284F38579
:10153000E02DEA84FB84830193014C815D81B1013C
:101540008A8D9B8D0995550CED89FE892E0E3F1EC7
:10155000FFEF8F1A9F0ABFCF430ED3949ACFAA8D65
:10156000BB8DED91FC9111970288F389E02DCD019F
:101570006B960FB6F894DEBF0FBECDBFDF91CF9153
:101580001F910F91FF90EF90DF90CF90BF90AF90A1
:101590009F908F907F906F905F904F903F902F9093
:1015A00009946B960FB6F894DEBF0FBECDBFDF91E6
:1015B000CF911F910F91FF90EF90DF90CF90BF9050
:1015C000AF909F908F907F906F905F904F903F90E3
:1015D0002F900895AF92BF92CF92EF92FF920F9308
:1015E0001F93CF93DF93EC01262F888D998D009761
:1015F00009F042C06A3069F41D861C862C898E85EC
:101600009F8538E0239F800D911D11249F878E8731
:10161000ACC06D3009F4A9C08E898823C1F03C8923
:101620008C859D8546E0349F800D911D1124488551
:101630005985481759075CF41D861C868E859F8541
:1016400048E0349F800D911D11249F878E87EA8882
:10165000FB88088919894E855F856C857D85CC88D6
:10166000CE010E94D8082C898C859D8536E0239F69
:10167000800D911D112442C06A3079F41D861C86AC
:101680004C89FC01369684912E853F85489F200D1C
:10169000311D11243F872E8768C06D3009F465C065
:1016A000FC0134963491631708F45FC03196E491DD
:1016B000E61708F45AC0FC01329665917491422FE6
:1016C00050E0431B510937E0349F5001359FB00C67
:1016D0001124A60EB71EF5013296A4913196E4911D
:1016E000AA2311F0E1110DC0F5013496A4902C89C4
:1016F0008C859D85A29E800D911D11249D878C87D0
:1017000034C0F5013596E4913E89332309F13C89D3
:10171000B0E0AE0FB11DE7FDBA953A9FA0013B9F27
:10172000500D11246C857D85460F571F688579857E
:10173000641775076CF41D861C86FC01369684912F
:101740004E855F85389F400D511D11245F874E8760
:10175000EA88FB88088919894E855F856C857D85B7
:10176000CC88CE010E94D808BFCF81E090E0DF9105
:10177000CF911F910F91FF90EF90CF90BF90AF90BE
:101780000895FC017587648757874687089561111E
:1017900001C061E0FC01648B0895FC01718B608BDA
:1017A000538B428B0895FC0185890895FC01808547
:1017B00091850895FC018285938508950F931F9369
:1017C000CF93DF93EC018D89823061F08330D9F0C3
:1017D000813009F0C8C0EC81FD81E41BF50B319725
:1017E000DB0118C08C819D81DC01A61BB70BBD01FC
:1017F0008E819F81FC01E41BF50BAF014150510923
:10180000621B730BB0C0AE81BF81A61BB70BA21BBE
:10181000B30BFA01F7FD05C18C819D81E817F9072B
:101820000CF0FFC0B7FF04C02A0F3B1FA0E0B0E0E0
:101830008E819F81AD01420F531F841795071CF4C1
:101840009C012A1B3B0B121613060CF0EAC0422F18
:101850008A2F86958695869590E8899FE00DF11DE3
:101860001124EE5DFE4FA77069F158E05A1B852FD9
:1018700090E0EC01C65EDE4F6881251760F4DC0164
:10188000A21BB1098FEF90E00A2E02C095958795B3
:101890000A94E2F768230130110539F048F002306C
:1018A000110551F48081862706C08081862B03C0F4
:1018B0006095808186238083451708F4B2C0451B5C
:1018C000E058FF4F4830A0F102301105A9F4DF01C4
:1018D000842F9C9190959C93A058BF4F885088303E
:1018E000C0F788EF840F869586958695B0E88B9F24
:1018F000E00DF11D112419C081E00130110509F03E
:1019000080E0982F9195EF01842F9883C058DF4F86
:1019100088508830D0F788EF840F86958695869515
:1019200090E8899FE00DF11D1124E058FF4F4770AA
:10193000442309F476C0A42FB0E0AE5EBE4F9C9164
:101940000130110541F050F00230110509F069C075
:101950008081892706C08081892B03C09095808172
:10196000892380835EC057FD5CC08E819F814817AC
:1019700059070CF056C077FF04C0260F371F60E0F0
:1019800070E08C819D81FB01E20FF31F8E179F0792
:101990001CF49C01261B370B121613060CF041C0D9
:1019A000CA0157FD0796E3E095958795EA95E1F71B
:1019B0009695982F8827979587958E5D9E4F860FD1
:1019C000971F4770552761E070E001C0660F4A9588
:1019D000EAF7462F0130110541F088F00230110579
:1019E00001F5FC01280F391F15C0FC01280F391F14
:1019F000E217F307B1F08081842B8193F9CF6095D2
:101A0000FC01280F391FE217F30759F08081862364
:101A10008193F9CFE217F30721F080818427819326
:101A2000F9CFDF91CF911F910F9108950F931F93DD
:101A3000CF93DF93FC018589823069F08330E1F038
:101A4000813009F082C0C481D581C41BD50BC21B73
:101A5000D30BDB0117C084819581DC01A61BB70B7A
:101A6000BD016150710986819781DC01A41BB50B12
:101A7000AD01421B530B69C0A681B781A61BB70BF2
:101A80001197EA01B7FD08C186819781A817B907A8
:101A90000CF002C1D7FF04C02C0F3D1FC0E0D0E006
:101AA00084819581AE01420F531F841795071CF462
:101AB0009C012C1B3D0B121613060CF0EDC0CD0142
:101AC000B7FD079643E0959587954A95E1F796957A
:101AD000982F8827979587958E5D9E4F8C0F9D1F19
:101AE000A770BB2741E050E00A2E01C0440F0A94C2
:101AF000EAF7642F0130110549F098F00230110522
:101B000009F0CAC0FC01280F391F17C0FC01280FBB
:101B1000391FE217F30709F4BFC08081862B819338
:101B2000F8CF4095FC01280F391FE217F30709F49D
:101B3000B3C0808184238193F8CFE217F30709F4BF
:101B4000ABC0808186278193F8CF77FDA5C08481C3
:101B50009581681779070CF09FC057FF04C0240FC8
:101B6000351F40E050E086819781FA01E20FF31FB4
:101B70008E179F071CF49C01241B350B12161306AD
:101B80000CF08AC0522F842F869586958695FB018E
:101B9000B0E88B9FE00DF11D1124EE5DFE4F477004
:101BA00069F168E0641B862F90E0EC01C65EDE4FB1
:101BB0004881261760F4DC01A21BB1098FEF90E089
:101BC0000A2E02C0959587950A94E2F748230130C2
:101BD000110539F048F00230110551F48081842755
:101BE00006C08081842B03C040958081842380833C
:101BF000561708F451C0561BE058FF4F5830A0F15B
:101C000002301105A9F4DF01852F9C9190959C93DA
:101C1000A058BF4F88508830C0F788EF850F869551
:101C200086958695B0E88B9FE00DF11D112419C0B3
:101C300081E00130110509F080E0982F9195EF01C6
:101C4000852F9883C058DF4F88508830D0F788EFB1
:101C5000850F86958695869590E8899FE00DF11D04
:101C60001124E058FF4F57705523B1F0A52FB0E075
:101C7000AE5EBE4F9C910130110539F048F0023044
:101C8000110551F48081892706C08081892B03C00A
:101C90009095808189238083DF91CF911F910F914F
:101CA0000895CF92DF92EF92FF920F931F93CF93FD
:101CB000DF937C018B01EA01690177FDA0C00E94DE
:101CC000D60B081719070CF09AC0D7FD98C0C701AA
:101CD0000E94DA0BC817D9070CF091C0C7010E9407
:101CE000D30B823009F07FC0F701848195819C017C
:101CF000201B310B89010150110986819781FC015C
:101D0000EC1BFD0BEF0121970BC0813049F4F7016B
:101D1000848195818C1B9D0BE8018C010150110978
:101D2000F1E0CF16D10431F010F132E0C316D10446
:101D3000E1F165C0FE01D7FD379683E0F595E795A3
:101D40008A95E1F7F695FE2FEE27F795E795E00FD8
:101D5000F11FEE5DFE4FC770DD2781E090E00C2E95
:101D600001C0880F0A94EAF79081982B3AC0FE01CF
:101D7000D7FD3796A3E0F595E795AA95E1F7F69597
:101D8000FE2FEE27F795E795E00FF11FEE5DFE4F72
:101D9000C770DD2781E090E00C2E01C0880F0A9407
:101DA000EAF78095908198231CC0FE01D7FD3796F5
:101DB00063E0F595E7956A95E1F7F695FE2FEE2736
:101DC000F795E795E00FF11FEE5DFE4FC770DD2739
:101DD00081E090E00C2E01C0880F0A94EAF7908110
:101DE000982790830CC0833009F08FCFF70186814C
:101DF0009781801B910B8E01EC01219791CFDF9190
:101E0000CF911F910F91FF90EF90DF90CF900895A9
:101E10001F93CF93DF93EC01162F40E250E060E870
:101E200070E00E94B7088CE993E0998388838FEF74
:101E30008C8F88A38E8F8D8F1F8FDF91CF911F91F5
:101E4000089580E092E0E2E2F1E0DF019C011D9262
:101E500021503040E1F70895FC0181A1882339F039
:101E60006EBD00000DB407FEFDCF8EB5089588E06D
:101E700090E030E8A4A1B5A14C9123A5209524239E
:101E80002C93A2A1B3A122A5432F462321F04C916C
:101E9000422B4C9304C04C91209524232C93A4A155
:101EA000B5A12C9143A5242B2C933695019711F7BE
:101EB00008951F93CF93DF93EC01162F8C8D8F3FE6
:101EC00009F1EEA1FFA180819CA5892B8083E8A563
:101ED000F9A590818DA5809589238083EEA1FFA12E
:101EE00090818CA5809589238083CE010E942C0F40
:101EF000EEA1FFA180819CA5892B8083DF91CF91EA
:101F00001F9108958A8D682F772767FD709586E366
:101F100094E00E942B1560E086E394E00E94C814D0
:101F2000612F86E394E00E94C81486E394E0DF9179
:101F3000CF911F910C9440150F931F93CF93DF9374
:101F4000EC01162F022F6B8F4A8F8C8D8F3F09F477
:101F50008CC061E08E8D0E94011461E088A10E9416
:101F6000011488A1992787FD9095FC01E057FA4F4D
:101F7000E491F0E0EE0FFF1FEC55FA4F25913491FC
:101F80003FA32EA3FC01E458FA4F84918CA78E8DB9
:101F9000992787FD9095FC01E057FA4FE491F0E016
:101FA000EE0FFF1FEC55FA4F2591349139A728A762
:101FB000FC01E458FA4F84918DA789A1811134C0A6
:101FC00061E08C8D0E94011461E08D8D0E940114EE
:101FD0008D8D992787FD9095FC01E057FA4FE4918C
:101FE000F0E0EE0FFF1FEC55FA4F259134913DA321
:101FF0002CA3FC01E458FA4F84918BA78C8D992770
:1020000087FD9095FC01E057FA4FE491F0E0EE0F68
:10201000FF1FEC55FA4F259134913BA32AA3FC01F5
:10202000E458FA4F84918AA789A1882311F10E946C
:10203000541180912B04882399F09FB7F8948091D4
:102040002B04813059F48DB3809329042DB38091F2
:102050002A04809582238DBB9FBF02C090932904E0
:1020600080E58CBD81E08DBD04C086E394E00E94D4
:1020700007150023F1F08F8D87FD1BC061E00E94E2
:10208000011461E08F8D0E943A1461E070E080E0FD
:1020900090E00E94581360E08F8D0E943A146AE02D
:1020A00070E080E090E00E94581361E08F8D0E9404
:1020B0003A146EEACE010E94590F65EDCE010E94DE
:1020C000590F60E8CE010E94590F68EACE010E94C4
:1020D000590F6FE1CE010E94590F63EDCE010E94AE
:1020E000590F60E0CE010E94590F60E4CE010E94BA
:1020F000590F6DE8CE010E94590F113011F460E1C3
:1021000001C064E1CE010E94590F60E2CE010E943D
:10211000590F60E0CE010E94590F61EACE010E9482
:10212000590F68ECCE010E94590F6AEDCE010E9452
:10213000590F62E0CE010E94590F61E8CE010E9462
:10214000590F6FE8CE010E94590F69EDCE010E9430
:10215000590F113011F462E201C061EFCE010E940B
:10216000590F6BEDCE010E94590F60E4CE010E9421
:10217000590F64EACE010E94590F66EACE010E940F
:10218000590F6EE2CE010E94590F6FEACE01DF9126
:10219000CF911F910F910C94590FDF92EF92FF9204
:1021A0000F931F93CF93DF93EC0161E20E94590FCD
:1021B00060E0CE010E94590F6FE7CE010E94590FD7
:1021C00062E2CE010E94590F60E0CE010E94590FD9
:1021D00063E0CE010E94590F8C8D8F3F31F1EEA14B
:1021E000FFA180819CA5892B8083E8A5F9A580812A
:1021F0009DA5892B8083EEA1FFA190818CA5809560
:102200008923808302E211E0F80161918F01CE0100
:102210000E942C0FF3E002321F07B1F7EEA1FFA1DD
:1022200080819CA5892B808337C0D090B8008CE03A
:102230008093B80002E211E06A8D772767FD709500
:1022400086E394E00E942B15E0913604F091370468
:102250000190F081E02D60E486E394E00995E12CA3
:10226000F12CF801EE0DFF1D608186E394E00E94E1
:10227000C8148FEFE81AF80AE0E1EE16F10489F7C6
:1022800086E394E00E944015005F1F4FF3E00232A6
:102290001F0791F6D092B800DF91CF911F910F9157
:1022A000FF90EF90DF900895CF93CFB7F89480918F
:1022B0002C04811127C0EAE9F5E08491E6E8F5E015
:1022C0009491E82FF0E0EE0FFF1FE255FA4FA59131
:1022D000B4918C91892321F461E08AE00E943A1440
:1022E00061E08AE00E9401148CB580618CBD8CB5E0
:1022F00080648CBD61E08DE00E94011461E08BE0A0
:102300000E94011480912C048F5F80932C04CFBF16
:10231000CF9108950E94C41908950E9480130E94CD
:102320008C110E94AD04C0E0D0E00E9436032097DB
:10233000E1F30E940000F9CFCF92DF92EF92FF927B
:102340000F931F93CF93DF936C017A01EB01E60E9D
:10235000F71E00E010E0CE15DF0561F06991D601AF
:10236000ED91FC910190F081E02DC6010995080FD7
:10237000191FF1CFC801DF91CF911F910F91FF90ED
:10238000EF90DF90CF9008956115710581F0DB012A
:102390000D900020E9F7AD0141505109461B570B44
:1023A000DC01ED91FC910280F381E02D099480E045
:1023B00090E008950C94C411DC01ED91FC91019022
:1023C000F081E02D099460EC73E00C94C4110F933C
:1023D0001F93CF93DF93EC010E94C4118C01CE01B7
:1023E0000E94E311800F911FDF91CF911F910F91F8
:1023F00008958F929F92AF92BF92CF92DF92EF9209
:10240000FF920F931F93CF93DF93CDB7DEB7A197C2
:102410000FB6F894DEBF0FBECDBF7C01C42EE52FF2
:10242000CB01D22E19A221E02D1510F02AE0D22ED8
:102430008E010F5D1F4F8D2C912CA12CB12C6C2D7A
:102440007E2FA50194010E9463198C2DD29E8019C4
:102450001124015011098A3014F4805D01C0895C97
:10246000F8018083211531054105510521F0C22E67
:10247000E32FCA01E4CFB801C7010E94C411A1969D
:102480000FB6F894DEBF0FBECDBFDF91CF911F9185
:102490000F91FF90EF90DF90CF90BF90AF909F9003
:1024A0008F900895CF92DF92EF92FF920F931F9338
:1024B000CF93DF93EC016A017B012115310579F49B
:1024C000E881F9810190F081E02D642FDF91CF91B7
:1024D0001F910F91FF90EF90DF90CF9009942A30D9
:1024E0003105E9F477FF1AC06DE20E94DC118C011E
:1024F00044275527BA014C195D096E097F092AE066
:10250000CE010E94F911800F911FDF91CF911F9191
:102510000F91FF90EF90DF90CF9008952AE0B701E0
:10252000A601CE01DF91CF911F910F91FF90EF9007
:10253000DF90CF900C94F9119A01AB01662757FDFB
:102540006095762F0C9452124F925F926F927F9209
:10255000AF92BF92CF92DF92EF92FF920F931F93B1
:10256000CF93DF93CDB7DEB729013A01621B730B1E
:10257000840B950B29893A894B895C892A193B0977
:102580004C095D09298B3A8B4B8B5C8B9B01AC0111
:1025900069897A898B899C890E945319E418F50806
:1025A00006091709A80197010E9485192A0D3B1DEC
:1025B0004C1D5D1DCA01B901DF91CF911F910F9193
:1025C000FF90EF90DF90CF90BF90AF907F906F9093
:1025D0005F904F9008951F920F920FB60F921124A3
:1025E0002F933F938F939F93AF93BF9380912E042C
:1025F00090912F04A0913004B091310430912D04BA
:1026000023E0230F2D3720F40196A11DB11D05C035
:1026100026E8230F0296A11DB11D20932D0480935F
:102620002E0490932F04A0933004B0933104809132
:10263000320490913304A0913404B0913504019692
:10264000A11DB11D8093320490933304A0933404F0
:10265000B0933504BF91AF919F918F913F912F918E
:102660000F900FBE0F901F9018953FB7F894809170
:10267000320490913304A0913404B091350426B50E
:10268000A89B05C02F3F19F00196A11DB11D3FBFAA
:102690006627782F892F9A2F620F711D811D911D3A
:1026A00042E0660F771F881F991F4A95D1F708955A
:1026B000CF92DF92EF92FF92CF93DF936B017C0179
:1026C0000E943513EB01C114D104E104F10489F037
:1026D0000E9452170E9435136C1B7D0B683E73409D
:1026E00090F381E0C81AD108E108F108C851DC4F25
:1026F000EACFDF91CF91FF90EF90DF90CF900895D8
:10270000789484B5826084BD84B5816084BD85B5CC
:10271000826085BD85B5816085BDEEE6F0E0808193
:1027200081608083E1E8F0E01082808182608083B4
:10273000808181608083E0E8F0E080818160808337
:10274000E1EBF0E0808184608083E0EBF0E0808169
:1027500081608083EAE7F0E080818460808380810B
:1027600082608083808181608083808180688083B3
:102770001092C10008958E3008F08E50877020911D
:10278000220390E4299F90011124822B80937C00E6
:1027900080917A00806480937A0080917A0086FD2F
:1027A000FCCF809178002091790090E0922B0895E1
:1027B000833081F028F4813099F08230A1F00895BF
:1027C0008730A9F08830B9F08430D1F4809180004E
:1027D0008F7D03C0809180008F7780938000089563
:1027E00084B58F7702C084B58F7D84BD08958091B4
:1027F000B0008F7703C08091B0008F7D8093B000D0
:102800000895CF93DF9390E0FC01E458FA4F2491B0
:10281000FC01E057FA4F8491882349F190E0880F3A
:10282000991FFC01E255FA4FA591B4918C559A4F2E
:10283000FC01C591D4919FB7611108C0F8948C91A7
:10284000209582238C93888182230AC0623051F4C0
:10285000F8948C91322F309583238C938881822B2E
:10286000888304C0F8948C91822B8C939FBFDF9156
:10287000CF9108950F931F93CF93DF931F92CDB7FE
:10288000DEB7282F30E0F901E859FA4F8491F901B9
:10289000E458FA4F1491F901E057FA4F04910023DC
:1028A000C9F0882321F069830E94D8136981E02F41
:1028B000F0E0EE0FFF1FEC55FA4FA591B4919FB7D2
:1028C000F8948C91611103C01095812301C0812B74
:1028D0008C939FBF0F90DF91CF911F910F9108951F
:1028E0008091660490E020916704821B910908950D
:1028F0002091670480916604281750F4E22FF0E0DD
:10290000E859FB4F808190E02F5F20936704089582
:102910008FEF9FEF0895E091670480916604E817B8
:1029200030F4F0E0E859FB4F808190E008958FEF9C
:102930009FEF08950895CF92DF92EF92FF920F9349
:102940001F93CF93DF937C01CB018A012091420436
:10295000222389F0EB016B01C40ED51ECC15DD05D9
:1029600069F06991D701ED91FC910190F081E02D22
:10297000C7010995F3CF642F0E94FC15C801DF91B0
:10298000CF911F910F91FF90EF90DF90CF9008951E
:10299000CF93DF931F92CDB7DEB7698320914204B6
:1029A0002223D1F020914304203240F021E030E096
:1029B000FC013383228380E090E015C080914404C1
:1029C000E82FF0E0EB5BFB4F998190838F5F809362
:1029D00044048093430405C061E0CE0101960E9447
:1029E000FC1581E090E00F90DF91CF910895FC01FC
:1029F0001382128248EE53E060E070E04483558316
:102A00006683778385ED93E09183808308951092A8
:102A100067041092660410924404109243040C94CC
:102A20004715862F413208F040E268E674E00E94C4
:102A300065151092670480936604089521E00C9454
:102A4000111581E080934204609365041092440460
:102A50001092430408950C9421150F93062F21E042
:102A60004091430465E474E0809165040E94A915D7
:102A70001092440410924304109242040F9108955E
:102A800061E00C942D1586E394E00C94F7141092F9
:102A9000F50481E08093F3041092F20461E082E196
:102AA0000E943A1461E083E10E943A14E9EBF0E0FD
:102AB00080818E7F808380818D7F808388E4809376
:102AC000B80085E48093BC000895413208F03FC00F
:102AD0009091F5049111FCCF91E09093F50420932F
:102AE000F3042FEF209388041092CD04240F209339
:102AF000CC049093F4049091F404880F892B809374
:102B0000F4048091F204813041F41092F204809137
:102B1000F4048093BB0085EC01C085EE8093BC007B
:102B20008091F5048130E1F38091CD04841710F495
:102B30004091CD042EEC34E0FB01D9018A2F821B99
:102B4000841718F48D918193F9CF842F089580E034
:102B500008950F93413208F046C09091F504911109
:102B6000FCCF92E09093F5040093F3049FEF9093D1
:102B700088041092CD044093CC04FB016EEC74E009
:102B8000DB019A2F961B941718F491919D93F9CF1E
:102B90001092F4049091F404880F892B8093F4042C
:102BA0008091F204813041F41092F2048091F40497
:102BB0008093BB0085EC01C085EE8093BC0022238E
:102BC00021F08091F5048230E1F3809188048F3FF9
:102BD00061F080918804803251F0809188048033C4
:102BE00041F483E007C081E005C080E003C082E0DB
:102BF00001C084E00F910895613298F42091F504AA
:102C0000243089F46093AA04FC018CEA94E0DC018E
:102C10002A2F281B261718F421912D93F9CF80E035
:102C2000089581E0089582E0089585ED8093BC00C9
:102C30008091BC0084FDFCCF1092F504089585ECD2
:102C40008093BC001092F50408951F920F920FB666
:102C50000F9211242F933F934F935F936F937F9322
:102C60008F939F93AF93BF93EF93FF938091B9009E
:102C7000887F803609F49CC068F5883209F45BC00F
:102C800090F4803109F454C038F4882309F4F5C075
:102C9000883009F44DC0F5C0883109F44CC0803249
:102CA00009F45DC0EEC0803409F468C048F4803394
:102CB00009F455C0883309F0E4C080938804A8C0A3
:102CC000803509F44FC0883509F45DC0883409F0B7
:102CD000D8C0D5C0883909F4C6C0A8F4883709F42B
:102CE00067C038F4883609F463C0803709F460C0DF
:102CF000C8C0883809F4B7C0803909F45FC080388B
:102D000009F0BFC05BC0803B09F485C038F4803A4D
:102D100009F466C0883A09F47EC0B3C0803C09F467
:102D2000A6C0883C09F4A3C0883B09F489C0A9C0A7
:102D30008091F40410C09091CD048091CC04981738
:102D400070F5E091CD0481E08E0F8093CD04F0E02A
:102D5000E253FB4F80818093BB0085EC85C080935C
:102D600088048DC0E091CD0481E08E0F8093CD0466
:102D70008091BB00F0E0E253FB4F80839091CD0443
:102D80008091CC046DC0E091CD0481E08E0F8093E2
:102D9000CD048091BB00F0E0E253FB4F8083809133
:102DA000F30481116CC081E08093F20484EA60C076
:102DB00083E08093F50410928904CFCF8091890439
:102DC000803208F050C0E091890481E08E0F80933A
:102DD00089048091BB00F0E0E657FB4F8083BDCFB4
:102DE00080918904803230F4E0918904F0E0E65764
:102DF000FB4F10820E9415166091890470E0E091EB
:102E0000EE04F091EF048AE894E0099510928904A9
:102E10000E941F1636C084E08093F5041092AB0424
:102E20001092AA04E091F004F091F10409958091C8
:102E3000AA04811105C081E08093AA041092AC0419
:102E4000E091AB0481E08E0F8093AB04F0E0E45599
:102E5000FB4F80818093BB009091AB048091AA04CA
:102E6000981708F47ACF85E88093BC000AC085ECF7
:102E70008093BC001092F50404C0109288040E9454
:102E80001516FF91EF91BF91AF919F918F917F9117
:102E90006F915F914F913F912F910F900FBE0F90C7
:102EA0001F90189508955058BB27AA270ED047C1E8
:102EB00038D130F03DD120F031F49F3F11F41EF4B1
:102EC0002DC10EF4E095E7FBFAC0E92F49D180F35C
:102ED000BA17620773078407950718F071F49EF517
:102EE00078C10EF4E0950B2EBA2FA02D0B01B9017D
:102EF00090010C01CA01A0011124FF27591B99F070
:102F0000593F50F4503E68F11A16F040A22F232F7B
:102F1000342F4427585FF3CF469537952795A795CB
:102F2000F0405395C9F77EF41F16BA0B620B730B72
:102F3000840BBAF09150A1F0FF0FBB1F661F771FE3
:102F4000881FC2F70EC0BA0F621F731F841F48F498
:102F5000879577956795B795F7959E3F08F0B3CF1E
:102F60009395880F08F09927EE0F97958795089508
:102F70000CD0E5C0DDD040F0D4D030F021F45F3F7C
:102F800019F09DC0511126C1C9C0EAD098F3992308
:102F9000C9F35523B1F3951B550BBB27AA2762171D
:102FA0007307840738F09F5F5F4F220F331F441F62
:102FB000AA1FA9F333D00E2E3AF0E0E830D091509A
:102FC0005040E695001CCAF729D0FE2F27D0660F87
:102FD000771F881FBB1F261737074807AB07B0E8C6
:102FE00009F0BB0B802DBF01FF2793585F4F2AF0DC
:102FF0009E3F510568F063C0EDC05F3FECF3983E23
:10300000DCF3869577956795B795F7959F5FC9F738
:10301000880F911D9695879597F90895E1E0660FC1
:10302000771F881FBB1F621773078407BA0720F03A
:10303000621B730B840BBA0BEE1F88F7E0950895A3
:1030400097D088F09F5790F0B92F9927B751A0F0EB
:10305000D1F0660F771F881F991F1AF0BA95C9F72C
:1030600012C0B13081F0B5D0B1E00895B2C0672F81
:10307000782F8827B85F39F0B93FCCF386957795DC
:103080006795B395D9F73EF49095809570956195C5
:103090007F4F8F4F9F4F089585D080F09F3740F42A
:1030A00091110EF097C060E070E080E89FEB08950A
:1030B00026F41B16611D711D811D07C021C097F9E3
:1030C0009F6780E870E060E00895882371F47723BB
:1030D00021F09850872B762F07C0662311F499278B
:1030E0000DC09051862B70E060E02AF09A95660F33
:1030F000771F881FDAF7880F9695879597F90895B7
:103100009F3F31F0915020F4879577956795B7955B
:10311000880F911D9695879597F908959FEF80ECFC
:10312000089500240A94161617061806090608952D
:1031300000240A9412161306140605060895092E93
:103140000394000C11F4882352F0BB0F40F4BF2B02
:1031500011F460FF04C06F5F7F4F8F4F9F4F089542
:1031600057FD9058440F551F59F05F3F71F0479538
:10317000880F97FB991F61F09F3F79F0879508951D
:10318000121613061406551FF2CF4695F1DF08C03C
:10319000161617061806991FF1CF86957105610559
:1031A00008940895E5DFA0F0BEE7B91788F4BB27BF
:1031B0009F3860F41616B11D672F782F8827985F07
:1031C000F7CF869577956795B11D93959639C8F396
:1031D0000895E894BB2766277727CB0197F90895D0
:1031E0000BD0ADCF9EDF28F0A3DF18F0952309F0B8
:1031F00066CF94CF1124EECFB3DFA0F3959FD1F328
:10320000950F50E0551F629FF001729FBB27F00D94
:10321000B11D639FAA27F00DB11DAA1F649F6627E9
:10322000B00DA11D661F829F2227B00DA11D621F38
:10323000739FB00DA11D621F839FA00D611D221FF2
:10324000749F3327A00D611D231F849F600D211DD6
:10325000822F762F6A2F11249F5750408AF0E1F079
:1032600088234AF0EE0FFF1FBB1F661F771F881FC2
:1032700091505040A9F79E3F510570F020CFAACF42
:103280005F3FECF3983EDCF3869577956795B795AD
:10329000F795E7959F5FC1F7FE2B880F911D9695D7
:1032A000879597F90895DB018F939F930E94A41946
:1032B000BF91AF91A29F800D911DA39F900DB29FD2
:1032C000900D11240895A1E21A2EAA1BBB1BFD012B
:1032D0000DC0AA1FBB1FEE1FFF1FA217B307E407F5
:1032E000F50720F0A21BB30BE40BF50B661F771F4D
:1032F000881F991F1A9469F760957095809590952D
:103300009B01AC01BD01CF010895052E97FB1EF472
:1033100000940E949C1957FD07D00E94631907FC76
:1033200003D04EF40C949C195095409530952195FE
:103330003F4F4F4F5F4F08959095809570956195E1
:103340007F4F8F4F9F4F08950E94B519A59F900DF5
:10335000B49F900DA49F800D911D11240895EE0F30
:10336000FF1F0590F491E02D0994A29FB001B39F37
:10337000C001A39F700D811D1124911DB29F700D7E
:10338000811D1124911D089581E090E0F8940C9422
:06339000C919F894FFCFFB
:103396000000F604800001000000110010000F007C
:1033A6000E00000103070F1F3F7F0080C0E0F0F80A
:1033B600FCFE00000000000000000000000000000D
:1033C60000000000000000000000000000000000F7
:1033D60000000000000000000000000000000000E7
:1033E60000000000000000000000000000000000D7
:1033F6000080808000000000000000000000000047
:103406000000008080C0C000000000000000000036
:1034160000000000000000000000000000000000A6
:103426000000000000000000000000000000000096
:103436000000000000000000000000000000000086
:1034460000000000000080C0E0F0F8FCF8E000009A
:1034560000000000000000000000000000000080E6
:1034660080808080008080000000008080808080D6
:1034760000FFFFFF00000000808080800000808049
:10348600000080FFFF8080008080008080808000B8
:1034960080800000000000808000008C8E84000088
:1034A60080F8F8F88000000000000000000000002E
:1034B6000000F0F0F0F0F0F0F0F0F0F0F0F0E0E006
:1034C600C08000E0FCFEFFFFFF7FFFFFFFFFFF0065
:1034D60000000000000000000000000000FEFFC722
:1034E6000101010183FFFF00007CFEC7010101010C
:1034F60083FFFFFF0038FEC78301010183C7FFFF7B
:10350600000001FFFF010100FFFF070101010000AC
:103516007FFF80000000FFFF7F0000FFFFFF00002D
:1035260001FFFFFF01000000000000000000000096
:103536000000030F3F7F7FFFFFFFFFFFFFFFE7C78F
:10354600C78F8F9FBFFFFFC3C0F0FFFFFFFFFFFCCA
:10355600FCFCFCFCFCFCFCF8F8F0F0E0C00001030D
:103566000303030301030300000000010303030335
:10357600010103010000000103030303010103032A
:103586000000000303000000030300000000000029
:10359600000103030303030100000001030100000F
:1035A600000303010000000000000000000000000E
:1035B6000000014C444420436F6E766572746F724E
:1035C6002054657374004368616E6E656C20313AF1
:1035D6002020200025004368616E6E656C20323A1B
:1035E600202020004368616E6E656C20333A2020EF
:1035F60020004368616E6E656C20343A20202000FE
:1036060000000000EA0A9C118A11A406A506C40659
:10361600AC06B806ED05D406A208A108D50619071A
:103626005D07AD07CB07420800000000EA0A9C11BF
:10363600510EA406A506C406AC06B806ED05D406CA
:10364600A208A108160DDE0B5D07AD07CB074208E1
:103656000D0A006E616E00696E66006F7666002E5A
:103666000000000000C8149B14701478148B149A80
:0236760014003E
:00000001FF
