:100000000C94DF020C9407030C9407030C94070371
:100010000C9407030C9407030C9407030C94070338
:100020000C9407030C9407030C9407030C94070328
:100030000C9407030C9407030C9407030C94070318
:100040000C9428150C9407030C9414130C94461369
:100050000C9407030C9407030C9407030C940703F8
:100060000C9462180C94070300000000003E5B4FE4
:100070005B3E3E6B4F6B3E1C3E7C3E1C183C7E3C08
:10008000181C577D571C1C5E7F5E1C00183C180016
:10009000FFE7C3E7FF0018241800FFE7DBE7FF30A6
:1000A000483A060E2629792926407F050507407F14
:1000B00005253F5A3CE73C5A7F3E1C1C08081C1C87
:1000C0003E7F14227F22145F5F005F5F06097F017D
:1000D0007F006689956A606060606094A2FFA29468
:1000E00008047E040810207E201008082A1C080836
:1000F0001C2A08081E101010100C1E0C1E0C303884
:100100003E3830060E3E0E06000000000000005F84
:1001100000000007000700147F147F14242A7F2AA0
:100120001223130864623649562050000807030062
:10013000001C2241000041221C002A1C7F1C2A08AE
:10014000083E080800807030000808080808000011
:1001500060600020100804023E5149453E00427F85
:10016000400072494949462141494D331814127FD4
:100170001027454545393C4A494931412111090774
:100180003649494936464949291E000014000000F5
:1001900040340000000814224114141414140041C7
:1001A00022140802015909063E415D594E7C121184
:1001B000127C7F494949363E414141227F414141BC
:1001C0003E7F494949417F090909013E4141517337
:1001D0007F0808087F00417F41002040413F017FA8
:1001E000081422417F404040407F021C027F7F0470
:1001F00008107F3E4141413E7F090909063E4151B9
:10020000215E7F09192946264949493203017F01A8
:10021000033F4040403F1F2040201F3F4038403FA9
:10022000631408146303047804036159494D4300BF
:100230007F4141410204081020004141417F0402F6
:10024000010204404040404000030708002054548D
:1002500078407F284444383844444428384444286B
:100260007F385454541800087E090218A4A49C78BE
:100270007F0804047800447D40002040403D007F1A
:100280001028440000417F40007C047804787C08FA
:100290000404783844444438FC18242418182424CE
:1002A00018FC7C08040408485454542404043F44B3
:1002B000243C4040207C1C2040201C3C4030403CE2
:1002C00044281028444C9090907C4464544C440042
:1002D00008364100000077000000413608000201A6
:1002E0000204023C2623263C1EA1A161123A404092
:1002F000207A38545455592155557941225454780F
:1003000042215554784020545579400C1E527212A7
:100310003955555559395454545939555454580030
:1003200000457C410002457D420001457C407D1234
:1003300011127DF0282528F07C5455450020545496
:100340007C547C0A097F4932494949323A44444441
:100350003A324A4848303A4141217A3A424020787C
:10036000009DA0A07D3D4242423D3D4040403D3C7D
:1003700024FF2424487E4943662B2FFC2F2BFF09A2
:1003800029F620C0887E0903205454794100004496
:100390007D413048484A32384040227A007A0A0A81
:1003A000727D0D19317D2629292F282629292926F4
:1003B00030484D4020380808080808080808382F39
:1003C00010C8ACBA2F102834FA00007B00000814C3
:1003D0002A142222142A14085500550055AA55AA99
:1003E00055AAFF55FF55FF000000FF00101010FF39
:1003F00000141414FF001010FF00FF1010F010F094
:10040000141414FC001414F700FF0000FF00FF1484
:1004100014F404FC141417101F10101F101F1414D0
:10042000141F00101010F0000000001F101010101A
:100430001F10101010F010000000FF10101010100E
:1004400010101010FF10000000FF140000FF00FF4C
:1004500000001F10170000FC04F4141417101714E8
:1004600014F404F40000FF00F7141414141414140A
:10047000F700F7141414171410101F101F1414147D
:10048000F4141010F010F000001F101F0000001FE7
:1004900014000000FC140000F010F01010FF10FF1A
:1004A000141414FF141010101F00000000F010FFAF
:1004B000FFFFFFFFF0F0F0F0F0FFFFFF0000000093
:1004C00000FFFF0F0F0F0F0F3844443844FC4A4A17
:1004D0004A347E02020606027E027E0263554941CC
:1004E000633844443C04407E201E2006027E020203
:1004F00099A5E7A5991C2A492A1C4C7201724C3017
:100500004A4D4D303048784830BC625A463D3E49ED
:100510004949007E0101017E2A2A2A2A2A44445F91
:10052000444440514A444040444A51400000FF0185
:1005300003E080FF000008086B6B08361236243693
:10054000060F090F060000181800000010100030F8
:1005500040FF0101001F01011E00191D1712003C80
:100560003C3C3C00000000000000000800020100CC
:10057000000304070000000000000000010204085E
:1005800010204080010204081020010204081020FD
:100590000404040404040404020202020202030329
:1005A0000303030300000000250028002B000000C7
:1005B0000000240027002A00DD0476138017112490
:1005C0001FBECFEFD8E0DEBFCDBF14E0A0E0B1E0AA
:1005D000E0E6F8E302C005900D92A631B107D9F725
:1005E00025E0A6E1B4E001C01D92AB3CB207E1F703
:1005F00015E0CEEBD5E004C02297FE010E94161C48
:10060000C83BD107C9F70E94BA130C942E1C0C9456
:100610000000AF92BF92CF92DF92EF92FF920F93C2
:100620001F93CF93DF9383E394E00E94640F61E014
:1006300083E394E00E940A0C61E070E083E394E0BD
:100640000E94100C40E050E060E070E083E394E032
:100650000E94040C65E273E083E394E00E941414AA
:1006600049E050E060E070E083E394E00E94040C15
:1006700068E373E083E394E00E94141442E150E0E5
:1006800060E070E083E394E00E94040C63E473E0B4
:1006900083E394E00E9414144BE150E060E070E0CA
:1006A00083E394E00E94040C6EE473E083E394E03F
:1006B0000E94141444E250E060E070E083E394E0B0
:1006C0000E94040C69E573E083E394E00E94141433
:1006D00083E394E00E94101164E673E085E694E001
:1006E0000E940714809112010E94F8154AE050E020
:1006F000BC0185E694E00E94C91460E773E085E6DA
:1007000094E00E940714809110010E94F8154AE0BD
:1007100050E0BC0185E694E00E94C9146CE773E0E8
:1007200085E694E00E94071480910E010E94F8155E
:100730004AE050E0BC0185E694E00E94C91468E8F4
:1007400073E085E694E00E94071480910C010E94FA
:10075000F8154AE050E0BC0185E694E00E94C91417
:10076000C0911C04D0911D04CC0FDD1FC25EDB4F75
:1007700080911A0490911B0428813981821B930B6C
:1007800090931B0480931A0480910A010E94F8152B
:100790009983888320911C0430911D04F901EE0F88
:1007A000FF1FE25EFB4F80911A0490911B04408171
:1007B0005181840F951F90931B0480931A042F5F1F
:1007C0003F4F2A3031052CF430931D0420931C0434
:1007D00004C010921D0410921C046AE070E00E9494
:1007E000A01B7093190460931804882777FD8095E7
:1007F000982F1F921F9220E12F931F92A12CB12CB2
:100800006501EE24EA9413E0F12E00E010E022E806
:1008100030E040E050E00E94E114709317046093D0
:10082000160460911804709119044AE050E085E6BE
:1008300094E00E94C91461E070E080E090E00E94C2
:10084000951520E030E140E050E060E082E394E084
:100850000E94410520E030E140E050E061E082E3A9
:1008600094E00E94410520E030E140E050E062E089
:1008700082E394E00E94410520E030E140E050E056
:1008800063E082E394E00E94410520E030E140E033
:1008900050E064E082E394E00E94410520E030E112
:1008A00040E050E065E082E394E00E94410520E0F2
:1008B00030E140E050E066E082E394E00E944105D0
:1008C00020E030E140E050E067E082E394E00E9405
:1008D000410520E030E140E050E068E082E394E050
:1008E0000E94410520E030E140E050E069E082E311
:1008F00094E00E94410520E030E140E050E06AE0F1
:1009000082E394E00E94410520E030E140E050E0C5
:100910006BE082E394E00E94410520E030E140E09A
:1009200050E06CE082E394E00E94410520E030E179
:1009300040E050E06DE082E394E00E94410520E059
:1009400030E140E050E06EE082E394E00E94410537
:1009500020E030E140E050E06FE082E394E00E946C
:10096000410520E030E140E050E06AE082E394E0BD
:100970000E94410564E670E080E090E00E949515D9
:100980002FEF3FE040E050E06AE082E394E00E9415
:1009900041050F900F900F900F9064E670E080E09B
:1009A00090E0DF91CF911F910F91FF90EF90DF903A
:1009B000CF90BF90AF900C94951564E083E394E0E2
:1009C0000E944B0F60E482E394E00C943E0526E025
:1009D00040E855E260E070E085E694E00E94B212E3
:1009E00082E394E00E94AE0540E050E068EC74E4DD
:1009F00082E394E00E94DB0521E04CE362E083E3C4
:100A000094E00E94DF0F83E394E00E94101160EDF8
:100A100077E080E090E00E94951583E394E00E94E7
:100A2000640F21E030E04AE050E06AE070E083E3E8
:100A300094E00E94940E83E394E00E94101160ED14
:100A400077E080E090E00E94951583E394E00E94B7
:100A5000640F8091B8008CE08093B800EEE1F4E080
:100A60001192119284E0E233F807D1F70895DC0186
:100A7000ED91FC910190F081E02D0994FC016083DF
:100A80000895FF920F931F93CF93DF9300D0CDB7BC
:100A9000DEB7162FF52E032FFC0160818BE095E069
:100AA0002A8349830E945E17E0910B05F0910C05A3
:100AB00084E0189FB00111246A5F7F4F0190F0819C
:100AC000E02D8BE095E009954981642F7F2D8BE027
:100AD00095E00E9437056F2D70E08BE095E00E9455
:100AE00037052A81622F702F8BE095E00E94370531
:100AF000602F70E08BE095E00E9437058BE095E079
:100B00000F900F90DF91CF911F910F91FF900C9458
:100B10007D171F93CF93DF931F92CDB7DEB7162FAC
:100B2000FC0160818BE095E049830E945E17612F94
:100B30008BE095E00E9405174981642F8BE095E0DA
:100B40000E9405178BE095E00F90DF91CF911F91E8
:100B50000C947D1740E060E00C948905CF93DF93FF
:100B6000EC018BE095E00E944417CE01DF91CF911C
:100B70000C94AA051F93CF93DF93EC01162F688185
:100B80008BE095E00E945E17612F8BE095E00E945C
:100B900005178BE095E00E947D1741E068818BE0AE
:100BA00095E00E945B178BE095E00E94B516DF91FF
:100BB000CF911F910895CF92DF92EF92FF921F93F2
:100BC000CF93DF93EC01CB01BA0126E636E646E689
:100BD0005FE30E942D1B9B01AC0160E27CEB8EEB7E
:100BE00095E40E94F51920E030E040E85FE30E94C0
:100BF000901920E030E040E05FE30E9491190E94EC
:100C0000891A6B017C0160E0CE010E94BA05182FA1
:100C1000482F4F76406160E0CE010E948905C701F0
:100C2000B6010E945D1A462F6EEFCE010E94890523
:100C3000412F60E0CE010E94890565E070E080E010
:100C400090E00E949515412F416A60E0CE01DF914E
:100C5000CF911F91FF90EF90DF90CF900C9489057A
:100C60002F923F924F925F926F927F928F929F92BC
:100C7000AF92BF92CF92DF92EF92FF920F931F93AA
:100C8000CF93DF9300D000D0CDB7DEB74C017C838B
:100C90006B836A015901C8018701AC014C195D09D8
:100CA00057FF03C051954195510995016B817C8196
:100CB000261B370B37FF03C03195219531092224BC
:100CC0002394312C2417350714F0212C312C2114B6
:100CD000310459F03A2D2B2D5C01832F922F3B814B
:100CE0002C81DC82CB82C32ED22EAB81BC81AA1692
:100CF000BB065CF43C2D2D2D6C01832F922F3B8184
:100D00002C81BC82AB82A32EB22E2501EB81FC810B
:100D10004E1A5F0A3C016C187D0877FE03C071947F
:100D200061947108720157FE03C0FFEFEF1AFF0ACA
:100D3000F594E794C816D9062CF421E030E03A8304
:100D4000298324C06FEF7FEF7A8369831FC0D401AA
:100D5000ED91FC910084F185E02D9801211431047E
:100D6000D9F04B815C81B601C4010995E618F708FA
:100D7000F7FE06C0E981FA81CE0EDF1EE40CF51CF9
:100D80002B813C812F5F3F4F3C832B836B817C8188
:100D9000A616B706E4F604C0A6016B817C81E4CFF9
:100DA0000F900F900F900F90DF91CF911F910F91A7
:100DB000FF90EF90DF90CF90BF90AF909F908F907B
:100DC0007F906F905F904F903F902F90089508957F
:100DD000DC01ED91FC910480F581E02D09940F93E5
:100DE0001F93DC01ED91FC91008CF18DE02D0995B4
:100DF0001F910F9108950F931F93DC01ED91FC91CA
:100E0000028CF38DE02D09951F910F910895EF92BB
:100E1000FF920F931F93DC01ED91FC91048CF58DF3
:100E2000E02D09951F910F91FF90EF90089508957F
:100E3000AF92BF92CF92DF92EF92FF920F931F93E8
:100E4000CF93DF9300D000D0CDB7DEB75C0169014E
:100E50007801DC01ED91FC910680F781E02D4B8358
:100E60005C8369837A830995D501ED91FC914B816F
:100E70005C818A010C0D1D1D015011090088F1894A
:100E8000E02D69817A819B01C5010995D501ED911C
:100E9000FC910288F389E02DC5010F900F900F900F
:100EA0000F90DF91CF911F910F91FF90EF90DF9006
:100EB000CF90BF90AF900994AF92BF92CF92DF9244
:100EC000EF92FF920F931F93CF93DF9300D000D048
:100ED000CDB7DEB75C016901DC01ED91FC910680C4
:100EE000F781E02D4B835C8369837A830995D50173
:100EF000ED91FC9169817A819B012C0D3D1D215062
:100F000031090088F189E02D78014B815C818A01EB
:100F1000C5010995D501ED91FC910288F389E02D79
:100F2000C5010F900F900F900F90DF91CF911F91FF
:100F30000F91FF90EF90DF90CF90BF90AF9009940A
:100F40004F925F926F927F928F929F92AF92BF92D9
:100F5000CF92DF92EF92FF920F931F93CF93DF9385
:100F600000D0CDB7DEB76C014A0159013801DC0170
:100F7000ED91FC910680F781E02D69837A830995D4
:100F80006981462E7A81572EA40CB51CD601ED91AD
:100F9000FC914A145B046CF40484F585E02D870110
:100FA0009301A401B201C6010995BFEF4B1A5B0A78
:100FB000EDCF0288F389E02DC6010F900F90DF91ED
:100FC000CF911F910F91FF90EF90DF90CF90BF9046
:100FD000AF909F908F907F906F905F904F9009940B
:100FE000EF92FF920F931F93DC01ED91FC9111970B
:100FF0001A960D911C911B9718962D913C9119975B
:10100000048CF58DE02D7B0140E050E060E070E065
:1010100009951F910F91FF90EF900895CF92DF9265
:10102000EF92FF920F931F93CF93DF9300D000D0E6
:1010300000D0CDB7DEB76C01DC01ED91FC916217F9
:10104000730789F4041715072CF4942F852FA80132
:10105000092F182F9801241B350B2F5F3F4F008C51
:10106000F18DE02D12C04017510709F526173707FB
:101070002CF4962F872FB901292F382F261B370BD9
:101080002F5F3F4F028CF38DE02D8701C60109953C
:1010900026960FB6F894DEBF0FBECDBFDF91CF917D
:1010A0001F910F91FF90EF90DF90CF9008950680F1
:1010B000F781E02D2D833E834B835C8369837A83A4
:1010C0000995D601ED91FC910088F189E02D2D81E3
:1010D0003E814B815C8169817A81C6010995D60187
:1010E000ED91FC910288F389E02DC60126960FB69A
:1010F000F894DEBF0FBECDBFDF91CF911F910F914E
:10110000FF90EF90DF90CF9009946F927F928F9233
:101110009F92AF92BF92CF92DF92EF92FF920F9386
:101120001F93CF93DF93EC015B016A013901480102
:10113000E881F9810680F781E02D0995E881F98140
:101140000684F785E02D87019301A601B501CE0144
:101150000995E881F981A601480D591D41505109B1
:101160000684F785E02D9301B501CE010995E8814C
:10117000F9810484F585E02D9401A601B501CE0125
:101180000995E881F981B501660D771D61507109F6
:101190000484F585E02D9401A601CE010995E8812E
:1011A000F9810288F389E02DCE01DF91CF911F9163
:1011B0000F91FF90EF90DF90CF90BF90AF909F90F6
:1011C0008F907F906F9009940895FC016370658BF8
:1011D0008481958126813781613039F0633029F02F
:1011E0009187808733872287089531872087938767
:1011F00082870895FC011382128288E993E091832B
:1012000080837583648357834683718760875387A0
:101210004287158A158614861786168621E0248B48
:101220008FEF9FEF938B828B918B808B268B178A0E
:10123000118E108E08952F923F924F925F926F926F
:101240007F928F929F92AF92BF92CF92DF92EF9256
:10125000FF920F931F93CF93DF93CDB7DEB76B97BA
:101260000FB6F894DEBF0FBECDBF9B8F8A8F4B01A8
:101270005A011B870A873701C982DC0158964D91B4
:101280005C9159974115510509F0E7C018968D9169
:101290009C911997681779070CF0C6C11A968D9121
:1012A0009C911B97A816B9060CF0BEC14C2C512C72
:1012B000FB0136E0C39EE00DF11D1124F88BEF8792
:1012C0001E161F060CF0B0C1C20133E0880F991F33
:1012D0003A95E1F79A8B898B8A0D9B1D1816190692
:1012E0000CF0A2C157968C91811103C0203B08F0ED
:1012F0002F5FAA8DBB8DED91FC9111970680F78130
:10130000E02DCD01298F0995F981EF2FF0E0FC8BBD
:10131000EB8B14019F828E82188608E6C02E00E0B7
:10132000D02EC818D908298D35E0239FC00CD11CB8
:101330001124F601E20DF31D44914E87BD82AC826B
:10134000BB82AA8258E05C878E8580FF13C0AA8D7D
:10135000BB8DED91FC91B981B13031F40084F18500
:10136000E02D2A853B8516C00284F385E02DEA84B2
:10137000FB841BC0EA85FB856E167F06F9F0AA8DFB
:10138000BB8DED91FC91B981B13059F40084F185A8
:10139000E02D93014A815B81B1018A8D9B8D099576
:1013A0000DC00284F385E02D7301820192014C810E
:1013B0005D816E817F818A8D9B8D0995EE85E69595
:1013C000EE87FC85F150FC872C813D814B895C893F
:1013D000240F351F3D832C838A819B8101969B833B
:1013E0008A83F111B1CF98859F5F9887AE81BF81C5
:1013F000A40FB51FBF83AE83BFEF2B1A3B0A9530F6
:1014000009F097CFEA85FB856E167F0609F4EAC0DE
:10141000AA8DBB8DED91FC91B981B13071F4B4010D
:101420006B5F7F4F0484F585E02D830128E030E079
:10143000A5018A8D9B8D0995D5C06F857889641922
:1014400075090284F385E02D730109891A899201D7
:10145000A5018A8D9B8D0995C5C0FA0134963491FA
:10146000329785919491231BB7E02B9F800D911D9E
:101470001124FA01259134913A8B298BFC01459175
:1014800054915B834A83FC01329654915E87319676
:10149000A491AF873296249031961491B981B230DD
:1014A00058F0422C552447FC5094E12FFF27E7FDCC
:1014B000F095FD87EC8704C01D861C86412C512CBD
:1014C000EA8DFB8DA081B1811696ED91FC91179765
:1014D0008A8D9B8D0995F9816F2E712C469C900108
:1014E000479C300D569C300D1124280D391D3F832B
:1014F0002E83412C512CD12C7E8A6D8AA401420D61
:10150000511D27FC5A9559874887C501810F911DA8
:1015100017FD9A95988F8F8B4F85D41608F062C06F
:101520008D2D90E02C853D85280F391F269DD001FB
:10153000279DB00D369DB00D1124AA0DBB1DBD8396
:10154000AC83888499842E803F80C42CB885CB1AC4
:10155000EF89F88DE80FF91FFC8BEB8B9C2D980D14
:10156000882D2885821B3E858317C8F5977061F406
:101570008A819B810196E989FA89AA81BB81EA0F58
:10158000FB1F54909B838A8357FE20C0AA8DBB8D7E
:10159000ED91FC91B981B13061F40084F185E02DC9
:1015A0002A853B854B895C89B4018A8D9B8D099581
:1015B0000DC00284F385E02DEA84FB84830193014E
:1015C0004C815D81B1018A8D9B8D0995550CED890A
:1015D000FE892E0E3F1EFFEF8F1A9F0ABFCF430ECC
:1015E000D3949ACFAA8DBB8DED91FC91119702886F
:1015F000F389E02DCD016B960FB6F894DEBF0FBED8
:10160000CDBFDF91CF911F910F91FF90EF90DF90B1
:10161000CF90BF90AF909F908F907F906F905F9092
:101620004F903F902F9009946B960FB6F894DEBFC1
:101630000FBECDBFDF91CF911F910F91FF90EF9023
:10164000DF90CF90BF90AF909F908F907F906F90E2
:101650005F904F903F902F900895AF92BF92CF929E
:10166000EF92FF920F931F93CF93DF93EC01262FFE
:10167000888D998D009709F042C06A3069F41D8603
:101680001C862C898E859F8538E0239F800D911DB7
:1016900011249F878E87ACC06D3009F4A9C08E8954
:1016A0008823C1F03C898C859D8546E0349F800D60
:1016B000911D112448855985481759075CF41D86EA
:1016C0001C868E859F8548E0349F800D911D1124D6
:1016D0009F878E87EA88FB88088919894E855F85F0
:1016E0006C857D85CC88CE010E941B092C898C8558
:1016F0009D8536E0239F800D911D112442C06A30E4
:1017000079F41D861C864C89FC01369684912E85C1
:101710003F85489F200D311D11243F872E8768C0CB
:101720006D3009F465C0FC0134963491631708F4F8
:101730005FC03196E491E61708F45AC0FC01329676
:1017400065917491422F50E0431B510937E0349F5B
:101750005001359FB00C1124A60EB71EF50132962C
:10176000A4913196E491AA2311F0E1110DC0F50185
:101770003496A4902C898C859D85A29E800D911D08
:1017800011249D878C8734C0F5013596E4913E89FC
:10179000332309F13C89B0E0AE0FB11DE7FDBA95E6
:1017A0003A9FA0013B9F500D11246C857D85460F0B
:1017B000571F68857985641775076CF41D861C862C
:1017C000FC01369684914E855F85389F400D511DF2
:1017D00011245F874E87EA88FB88088919894E851E
:1017E0005F856C857D85CC88CE010E941B09BFCFAB
:1017F00081E090E0DF91CF911F910F91FF90EF90EA
:10180000CF90BF90AF900895FC017587648757878C
:1018100046870895611101C061E0FC01648B089561
:10182000FC01738B628B718B608B0895FC01858941
:101830000895FC01808591850895FC01828593853A
:1018400008950F931F93CF93DF93EC018D8982301E
:1018500061F08330D9F0813009F0C8C0EC81FD819E
:10186000E41BF50B3197DB0118C08C819D81DC01F5
:10187000A61BB70BBD018E819F81FC01E41BF50BFC
:10188000AF0141505109621B730BB0C0AE81BF81E3
:10189000A61BB70BA21BB30BFA01F7FD05C18C8188
:1018A0009D81E817F9070CF0FFC0B7FF04C02A0FAD
:1018B0003B1FA0E0B0E08E819F81AD01420F531F1E
:1018C000841795071CF49C012A1B3B0B1216130668
:1018D0000CF0EAC0422F8A2F86958695869590E86F
:1018E000899FE00DF11D1124EC5DFE4FA77069F199
:1018F00058E05A1B852F90E0EC01C45EDE4F6881F2
:10190000251760F4DC01A21BB1098FEF90E00A2ECD
:1019100002C0959587950A94E2F768230130110576
:1019200039F048F00230110551F48081862706C055
:101930008081862B03C06095808186238083451734
:1019400008F4B2C0451BE058FF4F4830A0F1023008
:101950001105A9F4DF01842F9C9190959C93A058C8
:10196000BF4F88508830C0F788EF840F86958695E2
:101970008695B0E88B9FE00DF11D112419C081E020
:101980000130110509F080E0982F9195EF01842F27
:101990009883C058DF4F88508830D0F788EF840F85
:1019A00086958695869590E8899FE00DF11D112416
:1019B000E058FF4F4770442309F476C0A42FB0E0ED
:1019C000AC5EBE4F9C910130110541F050F00230E9
:1019D000110509F069C08081892706C08081892BA3
:1019E00003C090958081892380835EC057FD5CC0D1
:1019F0008E819F81481759070CF056C077FF04C0AD
:101A0000260F371F60E070E08C819D81FB01E20FA3
:101A1000F31F8E179F071CF49C01261B370B121611
:101A200013060CF041C0CA0157FD0796E3E09595F7
:101A30008795EA95E1F79695982F8827979587954A
:101A40008C5D9E4F860F971F4770552761E070E0B1
:101A500001C0660F4A95EAF7462F0130110541F0A3
:101A600088F00230110501F5FC01280F391F15C05F
:101A7000FC01280F391FE217F307B1F08081842B96
:101A80008193F9CF6095FC01280F391FE217F30706
:101A900059F0808186238193F9CFE217F30721F073
:101AA000808184278193F9CFDF91CF911F910F918E
:101AB00008950F931F93CF93DF93FC0185898230A4
:101AC00069F08330E1F0813009F082C0C481D581B2
:101AD000C41BD50BC21BD30BDB0117C084819581BE
:101AE000DC01A61BB70BBD0161507109868197818E
:101AF000DC01A41BB50BAD01421B530B69C0A681D1
:101B0000B781A61BB70B1197EA01B7FD08C1868103
:101B10009781A817B9070CF002C1D7FF04C02C0F9A
:101B20003D1FC0E0D0E084819581AE01420F531F7C
:101B3000841795071CF49C012C1B3D0B12161306F1
:101B40000CF0EDC0CD01B7FD079643E09595879564
:101B50004A95E1F79695982F8827979587958C5DFC
:101B60009E4F8C0F9D1FA770BB2741E050E00A2EAF
:101B700001C0440F0A94EAF7642F0130110549F0BF
:101B800098F00230110509F0CAC0FC01280F391F76
:101B900017C0FC01280F391FE217F30709F4BFC073
:101BA0008081862B8193F8CF4095FC01280F391F47
:101BB000E217F30709F4B3C0808184238193F8CF3F
:101BC000E217F30709F4ABC0808186278193F8CF31
:101BD00077FDA5C084819581681779070CF09FC0B7
:101BE00057FF04C0240F351F40E050E086819781E5
:101BF000FA01E20FF31F8E179F071CF49C01241BB0
:101C0000350B121613060CF08AC0522F842F8695BE
:101C100086958695FB01B0E88B9FE00DF11D1124A0
:101C2000EC5DFE4F477069F168E0641B862F90E021
:101C3000EC01C45EDE4F4881261760F4DC01A21B74
:101C4000B1098FEF90E00A2E02C0959587950A940E
:101C5000E2F748230130110539F048F00230110550
:101C600051F48081842706C08081842B03C0409575
:101C7000808184238083561708F451C0561BE05896
:101C8000FF4F5830A0F102301105A9F4DF01852F74
:101C90009C9190959C93A058BF4F88508830C0F776
:101CA00088EF850F869586958695B0E88B9FE00D29
:101CB000F11D112419C081E00130110509F080E007
:101CC000982F9195EF01852F9883C058DF4F88504A
:101CD0008830D0F788EF850F86958695869590E8B1
:101CE000899FE00DF11D1124E058FF4F57705523D7
:101CF000B1F0A52FB0E0AC5EBE4F9C910130110554
:101D000039F048F00230110551F48081892706C06E
:101D10008081892B03C09095808189238083DF9106
:101D2000CF911F910F910895CF92DF92EF92FF9282
:101D30000F931F93CF93DF937C018B01EA0169011D
:101D400077FDA0C00E94190C081719070CF09AC063
:101D5000D7FD98C0C7010E941D0CC817D9070CF009
:101D600091C0C7010E94160C823009F07FC0F701B4
:101D7000848195819C01201B310B8901015011093F
:101D800086819781FC01EC1BFD0BEF0121970BC0B5
:101D9000813049F4F701848195818C1B9D0BE8010A
:101DA0008C0101501109F1E0CF16D10431F010F18E
:101DB00032E0C316D104E1F165C0FE01D7FD3796CC
:101DC00083E0F595E7958A95E1F7F695FE2FEE27E6
:101DD000F795E795E00FF11FEC5DFE4FC770DD272B
:101DE00081E090E00C2E01C0880F0A94EAF7908100
:101DF000982B3AC0FE01D7FD3796A3E0F595E795FD
:101E0000AA95E1F7F695FE2FEE27F795E795E00FF7
:101E1000F11FEC5DFE4FC770DD2781E090E00C2ED6
:101E200001C0880F0A94EAF78095908198231CC01E
:101E3000FE01D7FD379663E0F595E7956A95E1F7E2
:101E4000F695FE2FEE27F795E795E00FF11FEC5D75
:101E5000FE4FC770DD2781E090E00C2E01C0880F97
:101E60000A94EAF79081982790830CC0833009F098
:101E70008FCFF70186819781801B910B8E01EC013A
:101E8000219791CFDF91CF911F910F91FF90EF900C
:101E9000DF90CF9008951F93CF93DF93EC01162F1F
:101EA00040E250E060E870E00E94FA0880EC93E0C5
:101EB000998388838FEF8C8F88A38E8F8D8F1F8F50
:101EC000DF91CF911F91089580E092E0E4E2F1E08C
:101ED000DF019C011D9221503040E1F70895FC0183
:101EE00081A1882339F06EBD00000DB407FEFDCF3F
:101EF0008EB5089588E090E030E8A4A1B5A14C919A
:101F000023A5209524232C93A2A1B3A122A5432F7E
:101F1000462321F04C91422B4C9304C04C912095C8
:101F200024232C93A4A1B5A12C9143A5242B2C935D
:101F30003695019711F708951F93CF93DF93EC0126
:101F4000162F8C8D8F3F09F1EEA1FFA180819CA5FA
:101F5000892B8083E8A5F9A590818DA5809589239B
:101F60008083EEA1FFA190818CA580958923808339
:101F7000CE010E946F0FEEA1FFA180819CA5892B4D
:101F80008083DF91CF911F9108958A8D682F7727E5
:101F900067FD70958BE095E00E94681760E08BE02C
:101FA00095E00E940517612F8BE095E00E940517D0
:101FB0008BE095E0DF91CF911F910C947D170F93EB
:101FC0001F93CF93DF93EC01162F022F6B8F4A8F55
:101FD0008C8D8F3F09F48CC061E08E8D0E943E167F
:101FE00061E088A10E943E1688A1992787FD9095FF
:101FF000FC01E057FA4FE491F0E0EE0FFF1FEC55C3
:10200000FA4F259134913FA32EA3FC01E458FA4FD7
:1020100084918CA78E8D992787FD9095FC01E057C0
:10202000FA4FE491F0E0EE0FFF1FEC55FA4F2591C7
:10203000349139A728A7FC01E458FA4F84918DA761
:1020400089A1811134C061E08C8D0E943E1661E04F
:102050008D8D0E943E168D8D992787FD9095FC01F0
:10206000E057FA4FE491F0E0EE0FFF1FEC55FA4F06
:10207000259134913DA32CA3FC01E458FA4F84919F
:102080008BA78C8D992787FD9095FC01E057FA4F1F
:10209000E491F0E0EE0FFF1FEC55FA4F25913491DB
:1020A0003BA32AA3FC01E458FA4F84918AA789A193
:1020B000882311F10E94971180916304882399F07D
:1020C0009FB7F89480916304813059F48DB3809365
:1020D00061042DB380916204809582238DBB9FBFE4
:1020E00002C09093610480E58CBD81E08DBD04C089
:1020F0008BE095E00E9444170023F1F08F8D87FD5F
:102100001BC061E00E943E1661E08F8D0E94771631
:1021100061E070E080E090E00E94951560E08F8DB6
:102120000E9477166AE070E080E090E00E949515CA
:1021300061E08F8D0E9477166EEACE010E949C0F9F
:1021400065EDCE010E949C0F60E8CE010E949C0FBD
:1021500068EACE010E949C0F6FE1CE010E949C0FA5
:1021600063EDCE010E949C0F60E0CE010E949C0FA7
:1021700060E4CE010E949C0F6DE8CE010E949C0F8E
:10218000113011F460E101C064E1CE010E949C0FA6
:1021900060E2CE010E949C0F60E0CE010E949C0F85
:1021A00061EACE010E949C0F68ECCE010E949C0F58
:1021B0006AEDCE010E949C0F62E0CE010E949C0F4E
:1021C00061E8CE010E949C0F6FE8CE010E949C0F37
:1021D00069EDCE010E949C0F113011F462E201C042
:1021E00061EFCE010E949C0F6BEDCE010E949C0F0F
:1021F00060E4CE010E949C0F64EACE010E949C0F15
:1022000066EACE010E949C0F6EE2CE010E949C0FF6
:102210006FEACE01DF91CF911F910F910C949C0F2B
:10222000DF92EF92FF920F931F93CF93DF93EC0116
:1022300061E20E949C0F60E0CE010E949C0F6FE75C
:10224000CE010E949C0F62E2CE010E949C0F60E0D2
:10225000CE010E949C0F63E0CE010E949C0F8C8DEA
:102260008F3F31F1EEA1FFA180819CA5892B808356
:10227000E8A5F9A580819DA5892B8083EEA1FFA10A
:1022800090818CA580958923808304E211E0F80178
:1022900061918F01CE010E946F0FF3E004321F079E
:1022A000B1F7EEA1FFA180819CA5892B808337C067
:1022B000D090B8008CE08093B80004E211E06A8D01
:1022C000772767FD70958BE095E00E946817E09195
:1022D0000B05F0910C050190F081E02D60E48BE09E
:1022E00095E00995E12CF12CF801EE0DFF1D6081C0
:1022F0008BE095E00E9405178FEFE81AF80AE0E1FD
:10230000EE16F10489F78BE095E00E947D17005FDF
:102310001F4FF3E004321F0791F6D092B800DF910F
:10232000CF911F910F91FF90EF90DF900895CF9381
:10233000CFB7F89480916404811127C0EAE9F5E0F1
:102340008491E6E8F5E09491E82FF0E0EE0FFF1FAE
:10235000E255FA4FA591B4918C91892321F461E063
:102360008AE00E94771661E08AE00E943E168CB5F2
:1023700080618CBD8CB580648CBD61E08DE00E9475
:102380003E1661E08BE00E943E16809164048F5FF0
:1023900080936404CFBFCF9108950E94291CFC0153
:1023A000818D228D90E0805C9F4F821B91098F73FD
:1023B00099270895FC01918D828D981731F0828DB7
:1023C000E80FF11D858D90E008958FEF9FEF089540
:1023D000FC01918D828D981761F0828DDF01A80F2D
:1023E000B11D5D968C91928D9F5F9F73928F90E04F
:1023F00008958FEF9FEF08958CE693E1892B49F0C4
:1024000080E090E0892B29F00E946C1381110C94DC
:1024100000000895FC01848DDF01A80FB11DA35AAF
:10242000BF4F2C91848D90E001968F739927848FF4
:10243000A689B7892C93A089B1898C9180648C93EB
:10244000938D848D981306C00288F389E02D8081D6
:102450008F7D80830895CF93DF93EC01888D88234F
:10246000C9F0EA89FB89808185FD05C0A889B98901
:102470008C9186FD0FC00FB607FCF5CF808185FFDC
:10248000F2CFA889B9898C9185FFEDCFCE010E944A
:102490000A12E7CFDF91CF910895CF92DF92FF929A
:1024A0000F931F93CF93DF931F92CDB7DEB76C01CD
:1024B00081E0D60158968C9358975B969C915B97D8
:1024C0005C968C915C97981307C05096ED91FC91A7
:1024D0005197808185FD2EC0F601038D10E00F5FBE
:1024E0001F4F0F731127F02EF601848DF81211C0C3
:1024F0000FB607FCF9CFD6015096ED91FC9151979C
:10250000808185FFF1CFC60169830E940A1269812B
:10251000EBCF838DE80FF11DE35AFF4F6083D601A7
:102520005B960C935B975296ED91FC91539780814B
:1025300080620CC0D6015696ED91FC91579760834E
:102540005096ED91FC91519780818064808381E069
:1025500090E00F90DF91CF911F910F91FF90DF904E
:10256000CF900895BF92CF92DF92EF92FF92CF93D8
:10257000DF93EC016A017B01B22EE889F98982E0E0
:102580008083411581EE580761057105A1F060E077
:1025900079E08DE390E0A70196010E94B41B2150E1
:1025A00031094109510956954795379527952115C8
:1025B00080E1380798F0E889F989108260E874E8CA
:1025C0008EE190E0A70196010E94B41B21503109D1
:1025D000410951095695479537952795EC85FD8515
:1025E0003083EE85FF852083188EEC89FD89B082CB
:1025F000EA89FB89808180618083EA89FB89808107
:1026000088608083EA89FB89808180688083EA8989
:10261000FB8980818F7D8083DF91CF91FF90EF9048
:10262000DF90CF90BF9008951F920F920FB60F9238
:1026300011242F938F939F93EF93FF93E091750451
:10264000F09176048081E0917B04F0917C0482FD1E
:1026500012C0908180917E048F5F8F7320917F04E0
:10266000821751F0E0917E04F0E0EB59FB4F958F1B
:1026700080937E0401C08081FF91EF919F918F91A3
:102680002F910F900FBE0F901F9018951F920F92D1
:102690000FB60F9211242F933F934F935F936F9335
:1026A0007F938F939F93AF93BF93EF93FF9385E6B1
:1026B00094E00E940A12FF91EF91BF91AF919F9118
:1026C0008F917F916F915F914F913F912F910F90DB
:1026D0000FBE0F901F90189585E694E00E94CF11D1
:1026E00021E0892B09F420E0822F089510926804DC
:1026F0001092670488EE93E0A0E0B0E08093690454
:1027000090936A04A0936B04B0936C0488EE93E0FA
:10271000909366048093650485EC90E09093720436
:102720008093710484EC90E090937404809373041C
:1027300080EC90E0909376048093750481EC90E0B7
:10274000909378048093770482EC90E090937A04DD
:102750008093790486EC90E090937C0480937B04D2
:1027600010927E0410927F041092800410928104D3
:10277000089508950E94BD150E94B9130E94E704B0
:10278000CCEFD1E10E9409032097E1F30E94FC11F4
:10279000F9CFCF92DF92EF92FF920F931F93CF93D7
:1027A000DF936C017A01EB01E60EF71E00E010E00A
:1027B000CE15DF0561F06991D601ED91FC91019094
:1027C000F081E02DC6010995080F191FF1CFC8014E
:1027D000DF91CF911F910F91FF90EF90DF90CF90FD
:1027E00008956115710581F0DB010D900020E9F776
:1027F000AD0141505109461B570BDC01ED91FC9195
:102800000280F381E02D099480E090E008950C941B
:10281000F113DC01ED91FC910190F081E02D099420
:1028200064EF73E00C94F1130F931F93CF93DF9336
:10283000EC010E94F1138C01CE010E941014800F54
:10284000911FDF91CF911F910F9108958F929F92C9
:10285000AF92BF92CF92DF92EF92FF920F931F93AE
:10286000CF93DF93CDB7DEB7A1970FB6F894DEBF55
:102870000FBECDBF7C01C42EE52FCB01D22E19A2F5
:1028800021E02D1510F02AE0D22E8E010F5D1F4F92
:102890008D2C912CA12CB12C6C2D7E2FA501940197
:1028A0000E94B41B8C2DD29E801911240150110955
:1028B0008A3014F4805D01C0895CF80180832115A1
:1028C00031054105510521F0C22EE32FCA01E4CFA5
:1028D000B801C7010E94F113A1960FB6F894DEBFAC
:1028E0000FBECDBFDF91CF911F910F91FF90EF9061
:1028F000DF90CF90BF90AF909F908F900895CF9230
:10290000DF92EF92FF920F931F93CF93DF93EC012F
:102910006A017B012115310579F4E881F981019083
:10292000F081E02D642FDF91CF911F910F91FF90E7
:10293000EF90DF90CF9009942A303105E9F477FFCA
:102940001AC06DE20E9409148C0144275527BA0170
:102950004C195D096E097F092AE0CE010E942614F8
:10296000800F911FDF91CF911F910F91FF90EF90FA
:10297000DF90CF9008952AE0B701A601CE01DF9144
:10298000CF911F910F91FF90EF90DF90CF900C941B
:1029900026140F931F93CF93DF93EC019A01AB01A1
:1029A000662757FD6095762F0E947F148C01CE011B
:1029B0000E941014800F911FDF91CF911F910F91F2
:1029C00008954F925F926F927F92AF92BF92CF9293
:1029D000DF92EF92FF920F931F93CF93DF93CDB7C8
:1029E000DEB729013A01621B730B840B950B298911
:1029F0003A894B895C892A193B094C095D09298B65
:102A00003A8B4B8B5C8B9B01AC0169897A898B89F2
:102A10009C890E94901BE418F50806091709A80173
:102A200097010E94D61B2A0D3B1D4C1D5D1DCA013E
:102A3000B901DF91CF911F910F91FF90EF90DF903F
:102A4000CF90BF90AF907F906F905F904F90089520
:102A50001F920F920FB60F9211242F933F938F93D3
:102A60009F93AF93BF938091030590910405A0912C
:102A70000505B09106053091020523E0230F2D379F
:102A800020F40196A11DB11D05C026E8230F029672
:102A9000A11DB11D209302058093030590930405A9
:102AA000A0930505B0930605809107059091080550
:102AB000A0910905B0910A050196A11DB11D809351
:102AC000070590930805A0930905B0930A05BF91E7
:102AD000AF919F918F913F912F910F900FBE0F90CB
:102AE0001F9018953FB7F8948091070590910805BD
:102AF000A0910905B0910A0526B5A89B05C02F3FF6
:102B000019F00196A11DB11D3FBF6627782F892FAF
:102B10009A2F620F711D811D911D42E0660F771F74
:102B2000881F991F4A95D1F70895CF92DF92EF92AF
:102B3000FF92CF93DF936B017C010E947215EB0132
:102B4000C114D104E104F10489F00E948F190E949C
:102B500072156C1B7D0B683E734090F381E0C81AC0
:102B6000D108E108F108C851DC4FEACFDF91CF91DD
:102B7000FF90EF90DF90CF900895789484B58260B5
:102B800084BD84B5816084BD85B5826085BD85B511
:102B9000816085BDEEE6F0E0808181608083E1E8C0
:102BA000F0E01082808182608083808181608083F8
:102BB000E0E8F0E0808181608083E1EBF0E08081FB
:102BC00084608083E0EBF0E0808181608083EAE7CD
:102BD000F0E0808184608083808182608083808156
:102BE000816080838081806880831092C100089515
:102BF0008E3008F08E5087702091240390E4299F36
:102C000090011124822B80937C0080917A00806453
:102C100080937A0080917A0086FDFCCF80917800C5
:102C20002091790090E0922B0895833081F028F470
:102C3000813099F08230A1F008958730A9F0883072
:102C4000B9F08430D1F4809180008F7D03C08091F1
:102C500080008F7780938000089584B58F7702C0BD
:102C600084B58F7D84BD08958091B0008F7703C0B7
:102C70008091B0008F7D8093B0000895CF93DF9353
:102C800090E0FC01E458FA4F2491FC01E057FA4F20
:102C90008491882349F190E0880F991FFC01E25547
:102CA000FA4FA591B4918C559A4FFC01C591D491DE
:102CB0009FB7611108C0F8948C91209582238C9362
:102CC000888182230AC0623051F4F8948C91322FAB
:102CD000309583238C938881822B888304C0F89459
:102CE0008C91822B8C939FBFDF91CF9108950F938E
:102CF0001F93CF93DF931F92CDB7DEB7282F30E01D
:102D0000F901E859FA4F8491F901E458FA4F149106
:102D1000F901E057FA4F04910023C9F0882321F00C
:102D200069830E9415166981E02FF0E0EE0FFF1F06
:102D3000EC55FA4FA591B4919FB7F8948C9161111D
:102D400003C01095812301C0812B8C939FBF0F90EE
:102D5000DF91CF911F910F91089580913B0590E0F5
:102D600020913C05821B9109089520913C0580919A
:102D70003B05281750F4E22FF0E0E35CFA4F808126
:102D800090E02F5F20933C0508958FEF9FEF08950B
:102D9000E0913C0580913B05E81730F4F0E0E35CFE
:102DA000FA4F808190E008958FEF9FEF0895089586
:102DB000CF92DF92EF92FF920F931F93CF93DF9307
:102DC0007C01CB018A0120911705222389F0EB01B8
:102DD0006B01C40ED51ECC15DD0569F06991D701D4
:102DE000ED91FC910190F081E02DC7010995F3CFA1
:102DF000642F0E943918C801DF91CF911F910F9164
:102E0000FF90EF90DF90CF900895CF93DF931F92C4
:102E1000CDB7DEB76983209117052223D1F0209129
:102E20001805203240F021E030E0FC01338322839A
:102E300080E090E015C080911905E82FF0E0E65E93
:102E4000FA4F998190838F5F8093190580931805BD
:102E500005C061E0CE0101960E94391881E090E042
:102E60000F90DF91CF910895FC011382128248EEFA
:102E700053E060E070E0448355836683778389E0A4
:102E800094E091838083089510923C0510923B0555
:102E900010921905109218050C948417862F413250
:102EA00008F040E26DE375E00E94A21710923C0525
:102EB00080933B05089521E00C944E1781E08093A8
:102EC000170560933A051092190510921805089598
:102ED0000C945E170F93062F21E0409118056AE1CC
:102EE00075E080913A050E94E6171092190510923C
:102EF0001805109217050F91089561E00C946A1758
:102F00008BE095E00C9434171092CA0581E0809311
:102F1000C8051092C70561E082E10E94771661E062
:102F200083E10E947716E9EBF0E080818E7F808359
:102F300080818D7F808388E48093B80085E48093CE
:102F4000BC000895413208F03FC09091CA0591112C
:102F5000FCCF91E09093CA052093C8052FEF2093F2
:102F60005D051092A205240F2093A1059093C90539
:102F70009091C905880F892B8093C9058091C70559
:102F8000813041F41092C7058091C9058093BB0040
:102F900085EC01C085EE8093BC008091CA0581302C
:102FA000E1F38091A205841710F44091A20523EA71
:102FB00035E0FB01D9018A2F821B841718F48D910B
:102FC0008193F9CF842F089580E008950F934132C3
:102FD00008F046C09091CA059111FCCF92E0909301
:102FE000CA050093C8059FEF90935D051092A20556
:102FF0004093A105FB0163EA75E0DB019A2F961B64
:10300000941718F491919D93F9CF1092C90590915E
:10301000C905880F892B8093C9058091C705813028
:1030200041F41092C7058091C9058093BB0085ECDF
:1030300001C085EE8093BC00222321F08091CA0557
:103040008230E1F380915D058F3F61F080915D05F5
:10305000803251F080915D05803341F483E007C0F8
:1030600081E005C080E003C082E001C084E00F91F0
:103070000895613298F42091CA05243089F4609350
:103080007F05FC0181E895E0DC012A2F281B26172B
:1030900018F421912D93F9CF80E0089581E00895EF
:1030A00082E0089585ED8093BC008091BC0084FD92
:1030B000FCCF1092CA05089585EC8093BC00109255
:1030C000CA0508951F920F920FB60F9211242F93E5
:1030D0003F934F935F936F937F938F939F93AF93A0
:1030E000BF93EF93FF938091B900887F803609F4F6
:1030F0009CC068F5883209F45BC090F4803109F413
:1031000054C038F4882309F4F5C0883009F44DC060
:10311000F5C0883109F44CC0803209F45DC0EEC0BE
:10312000803409F468C048F4803309F455C088330A
:1031300009F0E4C080935D05A8C0803509F44FC054
:10314000883509F45DC0883409F0D8C0D5C0883905
:1031500009F4C6C0A8F4883709F467C038F4883683
:1031600009F463C0803709F460C0C8C0883809F426
:10317000B7C0803909F45FC0803809F0BFC05BC0B8
:10318000803B09F485C038F4803A09F466C0883A77
:1031900009F47EC0B3C0803C09F4A6C0883C09F4A1
:1031A000A3C0883B09F489C0A9C08091C90510C09B
:1031B0009091A2058091A105981770F5E091A20564
:1031C00081E08E0F8093A205F0E0ED55FA4F8081EB
:1031D0008093BB0085EC85C080935D058DC0E09138
:1031E000A20581E08E0F8093A2058091BB00F0E0E4
:1031F000ED55FA4F80839091A2058091A1056DC095
:10320000E091A20581E08E0F8093A2058091BB0022
:10321000F0E0ED55FA4F80838091C80581116CC0B4
:1032200081E08093C70584EA60C083E08093CA058B
:1032300010925E05CFCF80915E05803208F050C0BD
:10324000E0915E0581E08E0F80935E058091BB006A
:10325000F0E0E15AFA4F8083BDCF80915E05803265
:1032600030F4E0915E05F0E0E15AFA4F10820E94DE
:10327000521860915E0570E0E091C305F091C405BD
:103280008FE595E0099510925E050E945C1836C0A6
:1032900084E08093CA051092800510927F05E0912A
:1032A000C505F091C605099580917F05811105C07E
:1032B00081E080937F0510928105E091800581E097
:1032C0008E0F80938005F0E0EF57FA4F8081809356
:1032D000BB009091800580917F05981708F47ACF04
:1032E00085E88093BC000AC085EC8093BC001092F6
:1032F000CA0504C010925D050E945218FF91EF911B
:10330000BF91AF919F918F917F916F915F914F91FD
:103310003F912F910F900FBE0F901F901895089519
:103320005058BB27AA270ED047C138D130F03DD125
:1033300020F031F49F3F11F41EF42DC10EF4E095FE
:10334000E7FBFAC0E92F49D180F3BA176207730788
:103350008407950718F071F49EF578C10EF4E09596
:103360000B2EBA2FA02D0B01B90190010C01CA013F
:10337000A0011124FF27591B99F0593F50F4503EEA
:1033800068F11A16F040A22F232F342F4427585FDC
:10339000F3CF469537952795A795F0405395C9F7F4
:1033A0007EF41F16BA0B620B730B840BBAF09150AC
:1033B000A1F0FF0FBB1F661F771F881FC2F70EC04B
:1033C000BA0F621F731F841F48F48795779567951E
:1033D000B795F7959E3F08F0B3CF9395880F08F007
:1033E0009927EE0F9795879508950CD0E5C0DDD00D
:1033F00040F0D4D030F021F45F3F19F09DC051115E
:1034000026C1C9C0EAD098F39923C9F35523B1F373
:10341000951B550BBB27AA2762177307840738F043
:103420009F5F5F4F220F331F441FAA1FA9F333D0A2
:103430000E2E3AF0E0E830D091505040E695001C56
:10344000CAF729D0FE2F27D0660F771F881FBB1F12
:10345000261737074807AB07B0E809F0BB0B802DEC
:10346000BF01FF2793585F4F2AF09E3F510568F038
:1034700063C0EDC05F3FECF3983EDCF38695779533
:103480006795B795F7959F5FC9F7880F911D96953A
:10349000879597F90895E1E0660F771F881FBB1F96
:1034A000621773078407BA0720F0621B730B840B43
:1034B000BA0BEE1F88F7E095089597D088F09F57D4
:1034C00090F0B92F9927B751A0F0D1F0660F771F70
:1034D000881F991F1AF0BA95C9F712C0B13081F050
:1034E000B5D0B1E00895B2C0672F782F8827B85FB4
:1034F00039F0B93FCCF3869577956795B395D9F7B1
:103500003EF490958095709561957F4F8F4F9F4FBA
:10351000089585D080F09F3740F491110EF097C048
:1035200060E070E080E89FEB089526F41B16611DB3
:10353000711D811D07C021C097F99F6780E870E069
:1035400060E00895882371F4772321F09850872B49
:10355000762F07C0662311F499270DC09051862B52
:1035600070E060E02AF09A95660F771F881FDAF7FF
:10357000880F9695879597F908959F3F31F0915060
:1035800020F4879577956795B795880F911D969547
:10359000879597F908959FEF80EC089500240A9489
:1035A0001616170618060906089500240A9412161E
:1035B0001306140605060895092E0394000C11F451
:1035C000882352F0BB0F40F4BF2B11F460FF04C0FE
:1035D0006F5F7F4F8F4F9F4F089557FD9058440F57
:1035E000551F59F05F3F71F04795880F97FB991F62
:1035F00061F09F3F79F0879508951216130614061F
:10360000551FF2CF4695F1DF08C0161617061806AB
:10361000991FF1CF86957105610508940895E5DF3E
:10362000A0F0BEE7B91788F4BB279F3860F41616E0
:10363000B11D672F782F8827985FF7CF86957795EC
:103640006795B11D93959639C8F30895E894BB2703
:1036500066277727CB0197F908950BD0ADCF9EDF72
:1036600028F0A3DF18F0952309F066CF94CF11243A
:10367000EECFB3DFA0F3959FD1F3950F50E0551F28
:10368000629FF001729FBB27F00DB11D639FAA27B7
:10369000F00DB11DAA1F649F6627B00DA11D661F06
:1036A000829F2227B00DA11D621F739FB00DA11D27
:1036B000621F839FA00D611D221F749F3327A00DE1
:1036C000611D231F849F600D211D822F762F6A2F7D
:1036D00011249F5750408AF0E1F088234AF0EE0F02
:1036E000FF1FBB1F661F771F881F91505040A9F70F
:1036F0009E3F510570F020CFAACF5F3FECF3983E7C
:10370000DCF3869577956795B795F795E7959F5F75
:10371000C1F7FE2B880F911D9695879597F908950F
:10372000DB018F939F930E94F51BBF91AF91A29FE6
:10373000800D911DA39F900DB29F900D11240895AF
:1037400097FB072E16F4009407D077FD09D00E944E
:10375000001C07FC05D03EF4909581959F4F08957D
:10376000709561957F4F0895A1E21A2EAA1BBB1B8D
:10377000FD010DC0AA1FBB1FEE1FFF1FA217B3073D
:10378000E407F50720F0A21BB30BE40BF50B661F53
:10379000771F881F991F1A9469F760957095809517
:1037A00090959B01AC01BD01CF010895052E97FBBB
:1037B0001EF400940E94ED1B57FD07D00E94B41B1D
:1037C00007FC03D04EF40C94ED1B509540953095BA
:1037D00021953F4F4F4F5F4F08959095809570957D
:1037E00061957F4F8F4F9F4F08950E941A1CA59F90
:1037F000900DB49F900DA49F800D911D11240895EC
:10380000AA1BBB1B51E107C0AA1FBB1FA617B70706
:1038100010F0A61BB70B881F991F5A95A9F7809522
:103820009095BC01CD010895EE0FFF1F0590F49116
:10383000E02D0994A29FB001B39FC001A39F700D1A
:10384000811D1124911DB29F700D811D1124911DA8
:10385000089581E090E0F8940C942E1CF894FFCF2A
:103860000000CB058000010000000E0011001000D8
:103870000F000E00000103070F1F3F7F0080C0E014
:10388000F0F8FCFE00000000000000000000000056
:103890000000000000000000000000000000000028
:1038A0000000000000000000000000000000000018
:1038B0000000000000000000000000000000000008
:1038C0000000008080800000000000000000000078
:1038D00000000000008080C0C00000000000000068
:1038E00000000000000000000000000000000000D8
:1038F00000000000000000000000000000000000C8
:1039000000000000000000000000000000000000B7
:10391000000000000000000080C0E0F0F8FCF8E0CB
:103920000000000000000000000000000000000097
:103930000080808080800080800000000080808087
:10394000808000FFFFFF000000008080808000007A
:103950008080000080FFFF80800080800080808069
:10396000800080800000000000808000008C8E8439
:10397000000080F8F8F8800000000000000000005F
:1039800000000000F0F0F0F0F0F0F0F0F0F0F0F0F7
:10399000E0E0C08000E0FCFEFFFFFF7FFFFFFFFFD5
:1039A000FF0000000000000000000000000000FE1A
:1039B000FFC70101010183FFFF00007CFEC7010179
:1039C000010183FFFFFF0038FEC78301010183C7A8
:1039D000FFFF000001FFFF010100FFFF07010101E0
:1039E00000007FFF80000000FFFF7F0000FFFFFF5F
:1039F000000001FFFFFF01000000000000000000C8
:103A000000000000030F3F7F7FFFFFFFFFFFFFFF6E
:103A1000E7C7C78F8F9FBFFFFFC3C0F0FFFFFFFF48
:103A2000FFFCFCFCFCFCFCFCFCF8F8F0F0E0C00047
:103A30000103030303030103030000000001030368
:103A4000030301010301000000010303030301015B
:103A50000303000000030300000003030000000054
:103A60000000000103030303030100000001030140
:103A7000000000030301000000000000000000003F
:103A800000000000014C444420436F6E7665727460
:103A90006F722054657374004368616E6E656C20AC
:103AA000313A004368616E6E656C20323A004368BB
:103AB000616E6E656C20333A004368616E6E656CB2
:103AC00020343A004368616E6E656C20313A200004
:103AD0004368616E6E656C20323A20004368616E07
:103AE0006E656C20333A20004368616E6E656C2011
:103AF000343A2000000000002D0BC913CD11E70659
:103B0000E8060707EF06FB0630061707E508E40896
:103B100018075C07A007F0070E08850800000000E2
:103B20002D0BC913940EE706E8060707EF06FB0600
:103B300030061707E508E408590D210CA007F00727
:103B40000E088508000000004D12C913CF11E811BE
:103B5000DA112B120D0A006E616E00696E66006F3D
:103B60007666002E00000000000517D816AD16B5C9
:063B700016C816D716006E
:00000001FF
